:100000000C947C010C94A4010C94A4010C94B50CE8
:100010000C94910C0C94670C0C94A4010C94A40106
:100020000C94A4010C94A4010C94A4010C94A401BC
:100030000C94A4010C94A4010C94A4010C94A401AC
:100040000C944A130C94A4010C9423110C94551194
:100050000C94A4010C94A4010C94A4010C94A4018C
:100060000C94C5150C94A4018A068A068F068F0687
:100070009406940694069906BD06BF06C106C306FB
:10008000C506C706C906C90687078F0797079F07D2
:10009000A607AD07B40700407A10F35A00A0724ECD
:1000A00018090010A5D4E80000E87648170000E41D
:1000B0000B54020000CA9A3B000000E1F505000065
:1000C00080969800000040420F000000A0860100CA
:1000D0000000102700000000E8030000000064009A
:1000E000000000000A000000000001000000000005
:1000F0002C76D888DC674F0823DFC1DFAE59E1B129
:10010000B796E5E3E453C63AE651997696E8E6C237
:100110008426EB898C9B62ED407C6FFCEFBC9C9F3E
:1001200040F2BAA56FA5F490055A2AF75C936B6C60
:10013000F9676DC11BFCE0E40D47FEF520E6B50054
:10014000D0ED902E0300943577050080841E0800C2
:1001500000204E0A000000C80C333333330F986E72
:1001600012831141EF8D2114893BE65516CFFEE62F
:10017000DB18D1844B381BF77C1D901DA4BBE424F5
:10018000203284725E228100C9F124ECA1E53D2772
:1001900025637B2273656E736F724E616D65223AC3
:1001A000222573222C22756E6974223A222573222D
:1001B0002C2276616C7565223A25732C226373229A
:1001C0003A25647D25630A004D61676E6574696335
:1001D00000626567696E202573206661696C6564DD
:1001E0002E20436865636B20776972696E67210012
:1001F000257325730000C201000100110011000CDD
:100200000000E100000A0025002500210000960002
:10021000001900390039003600127A00001F00462C
:1002200000460044008070000022004D004D004A4E
:1002300000004B0000360075007500720040380069
:10024000004A009C009C009900802500007200EC90
:1002500000EC00E900C0120000E900DA01DA01D781
:100260000160090000D701B603B603B303B0040070
:1002700000B3036E076E076B07580200006E07DCC1
:100280000EDC0ED80E2C010000DC0EC11DC11DBEFF
:100290001D00000008000201000003040700000028
:1002A0000000000000010204081020408001020448
:1002B00008102001020408102004040404040404AB
:1002C000040202020202020303030303030000000C
:1002D0000023002600290000000000250028002B34
:1002E0000000000000240027002A00000808460E35
:1002F000851146132008540E11241FBECFEFD8E0FD
:10030000DEBFCDBF11E0A0E0B1E0E4E3FCE302C05A
:1003100005900D92AE3CB107D9F723E0AEECB1E009
:1003200001C01D92AA3CB207E1F711E0CAE7D1E093
:1003300004C02197FE010E942817C637D107C9F7CC
:100340000E94B3110C940D1E0C940000FC018385D7
:100350000C94DE06AC014C5E5F4FBC01605F7F4FCA
:100360000C960E94F00681E008958091D001909152
:10037000D101892B51F480910601909107010E94CF
:10038000C4119093D1018093D0018091D0019091BC
:10039000D1010895CF93DF93C0910601D091070159
:1003A0000E94B501AE0160E070E00E9493181092C7
:1003B000CF011092CE01DF91CF91089581508B3003
:1003C00048F4E82FF0E0EE0FFF1FE75AFE4F808160
:1003D0009181089581EB91E00895EF92FF920F9340
:1003E0001F93CF93DF93CDB7DEB7C055D1090FB6BA
:1003F000F894DEBF0FBECDBF7B018E010D5C1F4F99
:10040000BC01C8010E948318B701CE0101967C018E
:100410000E9483180E94CA010E94B501FF92EF92C8
:100420001F930F939F938F930E94E1180E94B50131
:10043000BC0180E692E00E940B120F900F900F908B
:100440000F900F900F90C05BDF4F0FB6F894DEBF98
:100450000FBECDBFDF91CF911F910F91FF90EF9015
:100460000895AF92BF92CF92DF92EF92FF920F93D7
:100470001F93CF93DF936C015B017A0100E010E0E2
:10048000C0E0D0E00A151B056CF4F7016191719191
:10049000819191917F010E94580FC60FD71F0F5F66
:1004A0001F4FF0CFF6018191882319F0C80FD11D9D
:1004B000FACFCE01DF91CF911F910F91FF90EF9076
:1004C000DF90CF90BF90AF900895CF93DF93CDB7DB
:1004D000DEB7AE01475F5F4F6F8178858D819E816A
:1004E0000E943102DF91CF9108954F925F927F92E7
:1004F0008F929F92AF92BF92CF92DF92EF92FF9234
:100500000F931F93CF93DF93CDB7DEB7EA88FB88B5
:100510008C889D88AE88BF88C88CD98C8114910442
:10052000A104B10421F40E9494134B015C010E94C8
:10053000CA010E94B5012AE0AC01C501B4010E94C4
:10054000A5180E94B501FC0101900020E9F7319740
:10055000E81BF90BF093CF01E093CE01E114F10415
:1005600089F1F70101900020E9F731978F010E1909
:100570001F090333110514F002E310E00E94B501D6
:100580002091CE013091CF01A9014F5F5F4F509371
:10059000CF014093CE01820F931F2CE2FC012083F8
:1005A0000E94B501A090CE01B090CF01A801B70183
:1005B0008A0D9B1D0E948A180A0D1B1D1093CF01E6
:1005C0000093CE01CE014A962C01A12CB12C8CE2D5
:1005D000782E2091CE013091CF018091060190912B
:1005E0000701AC14BD04F4F5AC01495051092417BE
:1005F0003507C4F50E94B5012091CE013091CF019D
:10060000A9014F5F5F4F5093CF014093CE01820FFE
:10061000931FFC0170820E94B5014201F4E08F0E2D
:10062000911C0091CE011091CF01080F191FF2010A
:10063000608171818281938123E042E00E944217B0
:100640000E94B501FC0101900020E9F73197E81BF9
:10065000F90BF093CF01E093CE01FFEFAF1ABF0A81
:100660002401B7CF0A97281739079CF5AE01465EDB
:100670005F4FB601C7010E9431028C010E94B50193
:100680002091CE013091CF01A9014F5F5F4F509370
:10069000CF014093CE01820F931F2CE2FC012083F7
:1006A0000E94B5016091CE017091CF01680F791F52
:1006B0004AE0C8010E949A180E94B501FC0101900D
:1006C0000020E9F73197E81BF90BF093CF01E09395
:1006D000CE010E94B5012091CE013091CF01A90138
:1006E0004F5F5F4F5093CF014093CE01820F931F16
:1006F0002AE0FC0120830E94B501DF91CF911F9178
:100700000F91FF90EF90DF90CF90BF90AF909F90B0
:100710008F907F905F904F900895FC01962F272F28
:1007200046815781608571854115510561057105C7
:1007300069F187898F9386898F9385898F938489BF
:100740008F9383898F9382898F9381898F938089F7
:100750008F9387858F9386858F9385858F938485E7
:100760008F931F9283E08F937F936F935F934F9349
:100770002F939F930E9475022DB73EB72C5E3F4F7B
:100780000FB6F8943EBF0FBE2DBF089581EB91E0E8
:1007900008954F925F926F927F928F929F92AF9245
:1007A000BF92CF92DF92EF92FF920F931F93CF935E
:1007B000DF93CDB7DEB7C057D1090FB6F894DEBFCF
:1007C0000FBECDBFDB010D900020E9F711977D0131
:1007D000E61AF70ADA010D900020E9F71197A41B39
:1007E000B50BE091CE01F091CF013A96EE0DFF1DD1
:1007F000EA0FFB1FA0910601B0910701AE17BF07DA
:1008000008F450C0E22FF12FA02FC52ED42EE72ED2
:10081000F62EA92EB82E4E0121E5820E911C8401E0
:1008200022E044E07A2E6F2E5E2E432E6A2F7F2F19
:100830008E2F932F0E94421760E971E00055110935
:10084000C8010E9483184F925F926F927F921F920D
:1008500081E08F93EF92FF920E9465021F922CE736
:100860002F939F938F939F928F92CF92DF92EF92CD
:10087000FF921F928EE78F931F930F93AF92BF92B9
:100880000E94E1182091CE013091CF01820F931F79
:100890009093CF018093CE010FB6F894DEBF0FBEC8
:1008A000CDBF02C08FEF9FEFC059DF4F0FB6F89456
:1008B000DEBF0FBECDBFDF91CF911F910F91FF9093
:1008C000EF90DF90CF90BF90AF909F908F907F90F0
:1008D0006F905F904F9008952F923F924F925F924A
:1008E0006F927F928F929F92AF92BF92CF92DF9240
:1008F000EF92FF920F931F93CF93DF93CDB7DEB7A5
:100900002D970FB6F894DEBF0FBECDBF2AA12E8360
:100910003BA13F838DB79EB79D878C87F901DF018F
:100920000D900020E9F711971D012E1A3F0A60EF84
:1009300071E09E012F5F3F4F5901C9010E9483184A
:100940000E94CA01FE01B796C12CD12C32E0230EC1
:10095000311C8DA19EA1C816D9060CF050C02DB730
:100960003EB73B872A87808191819F012A5F3F4F55
:10097000398728874280538064807580DC01FD01BF
:1009800001900020E9F73197EA1BFB0BE20DF31D04
:100990002DB73EB72E1B3F0B0FB6F8943EBF0FBED0
:1009A0002DBF2F5F3F4F79019F938F933F813F93DF
:1009B0008E818F93BF92AF92FF92EF920E94E118C7
:1009C0008CA10E94DE014C010E94B501E091CE0194
:1009D000F091CF0193018201A401B7018E0F9F1FF7
:1009E0000E94C9032A853B850FB6F8943EBF0FBE0F
:1009F0002DBF3FEFC31AD30AE885F985AACF0E941D
:100A0000B5012C853D850FB6F8943EBF0FBE2DBFB6
:100A10002D960FB6F894DEBF0FBECDBFDF91CF91FC
:100A20001F910F91FF90EF90DF90CF90BF90AF900C
:100A30009F908F907F906F905F904F903F902F90FE
:100A400008950F931F93FC0106811781208531853E
:100A5000012B022B032BB9F187898F9386898F9302
:100A600085898F9384898F9388E091E09F938F93FA
:100A700083898F9382898F9381898F9380898F93C4
:100A80008AE091E09F938F9387858F9386858F93DC
:100A900085858F9384858F938CE091E09F938F93CE
:100AA0001F9283E08F9384818F937F936F930E9433
:100AB0006C042DB73EB7295E3F4F0FB6F8943EBF8A
:100AC0000FBE2DBF02C081EB91E01F910F910895E1
:100AD000CF93DF93EC010E943706E881F981019002
:100AE000F081E02DCE0109958A87811106C06A81C7
:100AF0007B8181ED91E00E94ED018A85DF91CF91AC
:100B00000895CF93DF93FC012285222381F0EC012D
:100B10000E9494136E837F8388879987E881F98187
:100B20000280F381E02DCE01DF91CF91099480E026
:100B3000DF91CF9108950F931F93CF93DF93EC0133
:100B40008B010E948105E881F9810680F781E02D03
:100B5000B801CE01DF91CF911F910F910994FC0153
:100B600083E791E09183808383E0838728EC31E001
:100B70003383228394E095838483168217821086C0
:100B800011861286089520E6FC0120830895FC0159
:100B90001082628341830895AF92BF92CF92DF9219
:100BA000EF92FF920F93CF93DF93D82EC62E7A0148
:100BB000E901682F8DEF92E00E94BF126C2D8DEF3E
:100BC00092E00E947612892B41F160E08DEF92E075
:100BD0000E94C91290E0009709F03FC0E114F104AF
:100BE000F9F02097E9F06D2D8DEF92E00E94BF1291
:100BF0004C2F6D2D8DEF92E00E9440132197A12C78
:100C0000B12C8DEF92E00E941D12181619065CF4AB
:100C1000CF3F8FEFD80771F406C08FEF9FEF1DC055
:100C200080E090E01AC061E08DEF92E00E94C9126E
:100C300090E013C0002379F0CE016701C80ED91EE1
:100C40008DEF92E00E942512F6018083FFEFAF1A2C
:100C5000BF0A2197D6CFC501F0CFDF91CF910F9179
:100C6000FF90EF90DF90CF90BF90AF9008950F93DB
:100C7000CF93DF9300D0CDB7DEB78091D201811141
:100C800026C08091D301811122C08DEF92E00E9495
:100C9000B51200E021E030E0AE014E5F5F4F60E052
:100CA00084E40E94CC0521E030E0AE014F5F5F4F4D
:100CB00062E989E20E94CC058A818D3741F48981FD
:100CC000843411F0803119F481E08093D2010F90C7
:100CD0000F90DF91CF910F910895CF92DF92EF9215
:100CE000FF92CF93E82F8093F4018091E701CE2EFD
:100CF000D12C833099F544E664E28AED91E00E94BC
:100D00006E0888E0C816D104C0F4F601EC5CFF4F11
:100D10000C94281781E08093F401C0E00EC083E0BA
:100D20008093F401C0E209C086E08093F401C0E43E
:100D300004C087E08093F401C0E64C2F65E28AEDA1
:100D400091E00E946E0840E066E28AED91E0CF916A
:100D5000FF90EF90DF90CF900C946E084CE060E035
:100D60008AED91E00E944E0888E0C816D104A8F4EC
:100D7000F601E45CFF4F0C942817C0E20EC0C0E4FB
:100D80000CC0C0E60AC0C0E808C0C0EA06C0C0EC9B
:100D900004C086E08093F401C0EE4C2F61E08AED40
:100DA00091E00E944E0840E062E08AED91E0CF9130
:100DB000FF90EF90DF90CF900C944E08CF93C82F08
:100DC0008DEF92E00E94B51242E064E08AED91E07E
:100DD0000E944F098C2F0E946D0681E0CF910895EB
:100DE0004F925F926F927F92AF92BF92CF92DF92BB
:100DF000EF92FF920F931F93CF93DF935C016B01F0
:100E00007A018AED91E00E9478088091E701E091F3
:100E1000F4016091E0017091E1010091E201109113
:100E2000E301C091E401D091E501833009F065C090
:100E3000E330C9F058F4E13039F58AE0482E87ED07
:100E4000582E83EA682E8DE3782E1EC0E630A1F07E
:100E5000E730D1F4FDE74F2EFFE35F2EF5EF6F2E65
:100E6000FEE37F2E11C0BAE04B2EB7ED5B2EB3E24E
:100E70006B2EBEE37B2E08C0AAE04A2EA7ED5A2EA9
:100E8000A3EA6A2EAEE37A2E072E000C880B990B8C
:100E90000E94CC0EA30192010E948B0F2DEC3CEC22
:100EA0004CEC5DE30E948B0FF501608371838283BC
:100EB0009383B801110F880B990B0E94CC0EA301EC
:100EC00092010E948B0F2DEC3CEC4CEC5DE30E94F8
:100ED0008B0FF6016083718382839383BE01DD0FE4
:100EE000880B990B0E94CC0EA30192010E948B0FDC
:100EF0002DEC3CEC4CEC5DE375C08E2F90E0873020
:100F00009105C0F5FC01EC5BFF4F0C942817412CB8
:100F1000E0E85E2EE9E86E2EE4E47E2E2BC0412C44
:100F200050EC552E55E5652E54E4752E23C0412C0A
:100F300040E8542E47E2642E44E4742E1BC0412C3A
:100F4000512C31EE632E33E4732E14C0412C512CFE
:100F500028EC622E23E4722E0DC0412C512C95EA10
:100F6000692E93E4792E06C0412C512C86E6682E1A
:100F700083E4782E072E000C880B990B0E94CC0E70
:100F8000A30192010E94580E20E030E048EC52E4A8
:100F90000E948B0FF5016083718382839383B80174
:100FA000110F880B990B0E94CC0EA30192010E9495
:100FB000580E20E030E048EC52E40E948B0FF6011E
:100FC0006083718382839383BE01DD0F880B990B4D
:100FD0000E94CC0EA30192010E94580E20E030E046
:100FE00048EC52E40E948B0FF70160837183828387
:100FF0009383DF91CF911F910F91FF90EF90DF903E
:10100000CF90BF90AF907F906F905F904F9008957A
:101010008AED91E00E94270861E589ED91E00E9448
:10102000240864E488ED91E00E941F0E40E06FEF19
:1010300085ED91E00E94C70584ED91E00C94C30515
:1010400088ED91E00C94220EFC0160830895FC0170
:1010500084E08587108E178A118E08950F931F9351
:10106000CF93DF93EC01062F142F6E858DEF92E066
:101070000E94BF12602F8DEF92E00E947612612FC6
:101080008DEF92E00E9476128DEF92E00E94431362
:101090008C87DF91CF911F910F9108950F931F932C
:1010A000CF93DF93EC01062F142F6F858DEF92E025
:1010B0000E94BF12602F8DEF92E00E947612612F86
:1010C0008DEF92E00E9476128DEF92E00E94431322
:1010D0008C87DF91CF911F910F910895FC01258599
:1010E000233011F0603210F40C944E080C942E084A
:1010F000CF92DF92EF92FF920F931F93CF93DF93E4
:10110000EC016F858DEF92E00E94BF128D858330D8
:1011100019F46A89606801C069898DEF92E00E94C4
:1011200076128DEF92E00E9443138C8746E06F8524
:101130008DEF92E00E9440130E9494138B018DEF7B
:1011400092E00E941D12069784F48F89988D892B56
:10115000B1F30E949413601B710B8F89988D8617D1
:10116000970768F781E0898F67C08D858330F9F430
:101170008DEF92E00E942512F82E8DEF92E00E94F2
:101180002512C82E8DEF92E00E942512082F8DEFB8
:1011900092E00E942512D82E8DEF92E00E94251237
:1011A000182F8DEF92E00E942512E82E36C08DEFA9
:1011B00092E00E942512C82E8DEF92E00E94251227
:1011C000F82E8D85811115C08DEF92E00E942512B9
:1011D000D82E8DEF92E00E942512082F8DEF92E01D
:1011E0000E942512E82E8DEF92E00E942512182F02
:1011F00014C08DEF92E00E942512E82E8DEF92E050
:101200000E942512182F8DEF92E00E942512D82EF1
:101210008DEF92E00E942512082F8F2D90E09C29DF
:101220009F838E83802F90E09D2999878887812FC7
:1012300090E09E299B878A87DF91CF911F910F9124
:10124000FF90EF90DF90CF900895CF93DF93C62F5C
:10125000D42F8DEF92E00E94BF126D2F8DEF92E0A0
:101260000E9476128DEF92E00E944313811112C00A
:1012700041E06C2F8DEF92E00E9440138DEF92E0E1
:101280000E941D12892B31F08DEF92E0DF91CF91FA
:101290000C9425128FEF9FEFDF91CF9108950F935C
:1012A0001F93CF93DF93EC01162F042F643019F0B6
:1012B000423009F040C08DEF810F8230C8F4002326
:1012C00061F04FE06DE1CE010E942509893491055E
:1012D00009F48FC0013009F495C04FE06EE1CE01F2
:1012E0000E9425098934910509F485C0143031F034
:1012F000123021F0113011F0111116C0002351F0FD
:1013000040E269E1CE010E942509019689F401308D
:1013100009F474C040E268E1CE010E9425090196FB
:1013200009F05AC0143011F0023029F480E06EC088
:101330001430C1F101E01D871130D1F078F1123085
:10134000E9F0133009F046C0013011F08EE101C020
:101350008DE18F878E8788E08A8B89E0898B8AE090
:101360008C8B8BE08B8B8CE08E8B8DE08D8B32C0E9
:10137000013021F088E103C082E08D8789E18E870A
:101380008EE18F8783E0898B84E08A8B87E08B8B6B
:1013900088E08C8B85E08D8B86E01BC0013051F09E
:1013A00088E109C04FE06EE1CE010E942509CC978B
:1013B00019F31D8689E18E878EE18F8783E0898B03
:1013C00084E08A8B85E08B8B86E08C8B87E08D8B2D
:1013D00088E08E8B81E01AC0143049F44FE06EE152
:1013E000CE010E94250911E0CC9709F010E000E041
:1013F000A2CF01E001C000E013E09DCF143009F45A
:1014000095CF99CF143009F47BCF72CFDF91CF9174
:101410001F910F910895CF92DF92EF92FF920F9359
:101420001F93CF93DF93EC01162FD42EC22E1B8275
:101430001A8288EE93E0A0E0B0E08C839D83AE83B7
:10144000BF838FE791E0998388838FEF860F823087
:1014500060F48CE190E00E94C2117C01202F4C2DA1
:101460006D2D0E94270DFD86EC861E87DF91CF91A2
:101470001F910F91FF90EF90DF90CF900895CF9341
:10148000DF932FE731E0FC0131832083C485D585CC
:10149000209741F0CE010E94180ECE01DF91CF912E
:1014A0000C94C611DF91CF910895CF92DF92EF9205
:1014B000FF92CF93DF93EC016A017B018E858D7FD4
:1014C00029F426E080E692E00E94BE108E858150CD
:1014D000823080F48C859D850E94EB0DB701A601BA
:1014E0008C859D85DF91CF91FF90EF90DF90CF901D
:1014F0000C94520DDF91CF91FF90EF90DF90CF9041
:101500000895FC0196859150923048F48485958524
:10151000DC01ED91FC910084F185E02D099480E6D9
:1015200092E00C940410FC0196859150923048F49E
:1015300084859585DC01ED91FC910680F781E02D95
:10154000099480E692E00C941210FC01968591506B
:10155000923048F484859585DC01ED91FC910480FE
:10156000F581E02D099480E692E00C94F80FCF937A
:10157000DF93EC018E858D7F21F480E692E00E945E
:101580009C108C859D85009769F02E852150223016
:1015900048F4DC01ED91FC910284F385E02DDF91AC
:1015A000CF910994DF91CF910895FF920F931F93EC
:1015B000CF93DF938C01F62EDC011C968D919C91CC
:1015C0001D97009781F01E962C912150223058F4DF
:1015D000DC01ED91FC910190F081E02D0995EC0189
:1015E000C170DD2702C0C1E0D0E0F80186858D7FA3
:1015F00039F46F2D80E692E00E945510C823D9235C
:10160000CE01DF91CF911F910F91FF90089520910E
:1016100037023091380228173907B9F49091F50153
:101620008091F601981789F0E091F501F0E0E9501A
:10163000FE4F80812091F50130E02F5F3F4F2F73E7
:1016400033272093F50190E008958FEF9FEF0895E1
:1016500020913702309138022817390771F49091A0
:10166000F5018091F601981741F0E091F501F0E065
:10167000E950FE4F808190E008958FEF9FEF08952D
:1016800020913702309138022817390771F4809180
:10169000F6012091F50190E0805C9F4F821B91093B
:1016A00060E470E00E94F216089580E090E00895F2
:1016B00020913702309138022817390739F48FB753
:1016C000F8941092F6011092F5018FBF0895DC0195
:1016D0005196ED91FC915297908150968C91809506
:1016E00089238083089520E001972FEF8F3F920791
:1016F000D9F7089520913702309138022817390719
:1017000089F0FC01238D2E7F238F2FB7F894109240
:10171000F6011092F50190933802809337022FBFA3
:1017200081E0089580E00895EF92FF920F931F9358
:10173000CF93DF93EC018B8DEE85FF859D8581FF37
:1017400004C08081982329F446C08081982309F041
:1017500042C08B899C890E94730B88E0E82EF12C93
:1017600010E001E08D899E890E94730BEE85FF8554
:1017700090818D85892311F0102B03C0802F8095D7
:101780001823000F81E0E81AF10861F78F89988D1E
:101790000E94730B8B8D81FD10958091F601209135
:1017A000F50190E001968F73992730E08217930737
:1017B00079F0E091F601F0E0E950FE4F108380915E
:1017C000F60190E001968F7399278093F60103C08C
:1017D0008B8D81608B8FDF91CF911F910F91FF9047
:1017E000EF900895611102C00C94670BDC015196D3
:1017F000ED91FC915297208150968C91822B8083A1
:101800000895DF92EF92FF920F931F93CF93DF9390
:10181000EC01298D3A8D2115310529F481E090E004
:101820009B838A834BC0162FDFB6F8946B8D669529
:1018300061700E94F20B898D9A8D05960E94730B40
:101840008B8D98E0E92EF12C01E081FF18C0812FEB
:10185000802321F0CE010E94670B04C061E0CE011D
:101860000E94F20B898D9A8D0E94730B000F81E00C
:10187000E81AF10861F7CE010E94670B18C0812FAA
:10188000802329F061E0CE010E94F20B03C0CE015B
:101890000E94670B898D9A8D0E94730B000F81E067
:1018A000E81AF10861F761E0CE010E94F20BDFBE99
:1018B000898D9A8D0E94730B21E030E0C901DF9180
:1018C000CF911F910F91FF90EF90DF9008951F929D
:1018D0000F920FB60F9211242F933F934F935F9364
:1018E0006F937F938F939F93AF93BF93EF93FF93E8
:1018F0008091370290913802009711F00E94940B6A
:10190000FF91EF91BF91AF919F918F917F916F91D7
:101910005F914F913F912F910F900FBE0F901F90AD
:1019200018951F920F920FB60F9211242F933F9389
:101930004F935F936F937F938F939F93AF93BF93D7
:10194000EF93FF930E94670CFF91EF91BF91AF91CE
:101950009F918F917F916F915F914F913F912F91C7
:101960000F900FBE0F901F9018951F920F920FB6F9
:101970000F9211242F933F934F935F936F937F9315
:101980008F939F93AF93BF93EF93FF930E94670C46
:10199000FF91EF91BF91AF919F918F917F916F9147
:1019A0005F914F913F912F910F900FBE0F901F901D
:1019B00018951F93CF93DF93EC01162F61E0812FD1
:1019C0000E94651461E0812F0E94A114812F90E094
:1019D000FC01EB55FD4FE491E88BFC01E754FD4F12
:1019E000E491F0E0EE0FFF1FE952FD4F85919491D5
:1019F0009A8B898BDF91CF911F9108951F93CF937D
:101A0000DF93EC01162F60E0812F0E9465148B8D0F
:101A100081FD04C061E0812F0E94A1141C87812FE9
:101A200090E0FC01EB55FD4FE491ED87FC01E7549C
:101A3000FD4FE491F0E0EE0FFF1FE353FD4F859162
:101A400094919F878E87DF91CF911F9108951F9367
:101A5000CF93DF93EC01162F1B821A8288EE93E05E
:101A6000A0E0B0E08C839D83AE83BF838FE891E0DC
:101A7000998388831C8A1B8A1E8A1D8A188E1F8A56
:101A80001A8E198E8B8D8E7F20FB81F98B8F642FA0
:101A9000CE010E94D90C612FCE01DF91CF911F9111
:101AA0000C94FE0CCF92DF92EF92FF92CF93DF93D4
:101AB000EC011A8E198E188E1F8A1E8A1D8A85EFD8
:101AC00091E020E030E0FC01C590D590E590F490E5
:101AD000C416D506E606F70619F54CE0429FC0018C
:101AE000439F900D1124FC01E750FE4F2591349146
:101AF0003C8B2B8BFC01E550FE4F259134913E8BA6
:101B00002D8BFC01E350FE4F25913491388F2F8BA4
:101B1000FC01E150FE4F859194919A8F898F09C005
:101B20002F5F3F4F0C962D30310509F0CCCF1C8A2A
:101B30001B8A8F89988D892B09F444C08C85863146
:101B4000E8F590916800883050F021E08E3008F47C
:101B500020E081E001C0880F2A95EAF701C084E007
:101B6000892B809368009C85983038F09E3040F037
:101B7000963148F0E0E0F0E008C0EDE6F0E005C0A6
:101B8000EBE6F0E002C0ECE6F0E04081983030F4A3
:101B900081E001C0880F9A95EAF70EC0292F30E046
:101BA0009E3018F42850310902C02E50310981E0CE
:101BB00001C0880F2A95EAF7842B8083898D9A8D3E
:101BC0000E94730BCE01DF91CF91FF90EF90DF90D9
:101BD000CF900C947A0BFC012485263140F52830F7
:101BE00028F02E3030F4EBE6F0E005C0EDE6F0E052
:101BF00002C0ECE6F0E03081283038F481E090E07B
:101C000001C0880F2A95EAF70FC0422F50E02E300E
:101C100018F44850510902C04E50510981E090E03B
:101C200001C0880F4A95EAF7809583238083089541
:101C30002FE831E0FC01318320830C94EB0DFC0193
:101C400060830895089540E855E260E070E081E522
:101C500092E00E94550A89E392E00E94680561EBD8
:101C600071E081E592E00C940B126BE971E089E37D
:101C700092E00E949B05BC0181E592E00E940B125C
:101C800064EF71E080E090E00C94C5130F9300E0E6
:101C900029E048E062E081E592E00E940B0A89E3D6
:101CA00092E00F910C94AF0581E592E00C943F0A0D
:101CB0000E946C0E0C941E0F0E94170F58F00E9489
:101CC000100F40F029F45F3F29F00C94070F5111D9
:101CD0000C94520F0C940D0F0E942F0F68F3992350
:101CE000B1F3552391F3951B550BBB27AA27621718
:101CF0007307840738F09F5F5F4F220F331F441F25
:101D0000AA1FA9F335D00E2E3AF0E0E832D0915058
:101D10005040E695001CCAF72BD0FE2F29D0660F45
:101D2000771F881FBB1F261737074807AB07B0E888
:101D300009F0BB0B802DBF01FF2793585F4F3AF08E
:101D40009E3F510578F00C94070F0C94520F5F3FA3
:101D5000E4F3983ED4F3869577956795B795F79514
:101D60009F5FC9F7880F911D9695879597F90895FC
:101D7000E1E0660F771F881FBB1F62177307840798
:101D8000BA0720F0621B730B840BBA0BEE1F88F7A7
:101D9000E0950895E89409C097FB3EF490958095EE
:101DA000709561957F4F8F4F9F4F9923A9F0F92F21
:101DB00096E9BB279395F695879577956795B7959F
:101DC000F111F8CFFAF4BB0F11F460FF1BC06F5F85
:101DD0007F4F8F4F9F4F16C0882311F096E911C097
:101DE000772321F09EE8872F762F05C0662371F0B8
:101DF00096E8862F70E060E02AF09A95660F771FCC
:101E0000881FDAF7880F9695879597F9089597F9BF
:101E10009F6780E870E060E008959FEF80EC089590
:101E200000240A94161617061806090608950024B9
:101E30000A9412161306140605060895092E039433
:101E4000000C11F4882352F0BB0F40F4BF2B11F4A7
:101E500060FF04C06F5F7F4F8F4F9F4F089557FD06
:101E60009058440F551F59F05F3F71F04795880F08
:101E700097FB991F61F09F3F79F08795089512169F
:101E800013061406551FF2CF4695F1DF08C016164B
:101E900017061806991FF1CF8695710561050894FC
:101EA0000895E894BB2766277727CB0197F9089513
:101EB0000E94370F58F19E5760F19851A0F0E9F059
:101EC000983020F5092E9927660F771F881F991FD4
:101ED0000A94D1F712C0062E672F782F8827985FB3
:101EE00011F4000C07C0993FB4F386957795679578
:101EF0009395D9F7611D711D811D3EF490958095D4
:101F0000709561957F4F8F4F9F4F089568940C9403
:101F1000520F0C94510F0E949E0F0C941E0F0E94A2
:101F2000100F38F00E94170F20F0952311F00C9439
:101F3000070F0C940D0F11240C94520F0E942F0FB9
:101F400070F3959FC1F3950F50E0551F629FF0010C
:101F5000729FBB27F00DB11D639FAA27F00DB11D25
:101F6000AA1F649F6627B00DA11D661F829F2227AE
:101F7000B00DA11D621F739FB00DA11D621F839F35
:101F8000A00D611D221F749F3327A00D611D231F0B
:101F9000849F600D211D822F762F6A2F11249F5759
:101FA00050409AF0F1F088234AF0EE0FFF1FBB1F5C
:101FB000661F771F881F91505040A9F79E3F51051B
:101FC00080F00C94070F0C94520F5F3FE4F3983E9F
:101FD000D4F3869577956795B795F795E7959F5FC5
:101FE000C1F7FE2B880F911D9695879597F9089557
:101FF000FC01918D228D892F90E0805C9F4F821B88
:1020000091098F7399270895FC01918D828D9817FE
:1020100031F0828DE80FF11D858D90E008958FEFEE
:102020009FEF0895FC01918D828D981761F0828D4C
:10203000DF01A80FB11D5D968C91928D9F5F9F73FC
:10204000928F90E008958FEF9FEF08958BE791E1D5
:10205000892B49F080E090E0892B29F00E947B11C8
:1020600081110C9400000895FC01848DDF01A80FFC
:10207000B11DA35ABF4F2C91848D90E001968F73B0
:102080009927848FA689B7892C93A089B1898C91CF
:1020900080648C93938D848D981306C00288F38995
:1020A000E02D80818F7D80830895EF92FF920F93C2
:1020B0001F93CF93DF93EC0181E0888F9B8D8C8DF4
:1020C000981305C0E889F989808185FD24C0F62E22
:1020D0000B8D10E00F5F1F4F0F731127E02E8C8DBB
:1020E000E8120CC00FB607FCFACFE889F9898081A5
:1020F00085FFF5CFCE010E943410F1CF8B8DFE010C
:10210000E80FF11DE35AFF4FF0820B8FEA89FB893C
:102110008081806207C0EE89FF896083E889F98940
:1021200080818064808381E090E0DF91CF911F9176
:102130000F91FF90EF900895CF93DF93EC01888D7E
:102140008823C9F0EA89FB89808185FD05C0A889BB
:10215000B9898C9186FD0FC00FB607FCF5CF808141
:1021600085FFF2CFA889B9898C9185FFEDCFCE018B
:102170000E943410E7CFDF91CF910895CF92DF9284
:10218000EF92FF921F93CF93DF93EC016A017B01E3
:10219000122FE889F98982E080834115514E61054B
:1021A0007105B1F060E079E08DE390E0A701960160
:1021B0000E940617DA01C9010197A109B109B69574
:1021C000A795979587959C01211580E13807A8F080
:1021D000E889F989108260E874E88EE190E0A7014F
:1021E00096010E940617DA01C9010197A109B109F8
:1021F000B695A795979587959C01EC85FD853083CD
:10220000EE85FF852083188EEC89FD891083EA898D
:10221000FB89808180618083EA89FB898081886075
:102220008083EA89FB89808180688083EA89FB89D1
:1022300080818F7D8083DF91CF911F91FF90EF9000
:10224000DF90CF9008951F920F920FB60F92112436
:102250002F938F939F93EF93FF93E0917002F091F0
:1022600071028081E0917602F091770282FD12C0C6
:102270009081809179028F5F8F7320917A0282170B
:1022800051F0E0917902F0E0E05AFD4F958F809394
:10229000790201C08081FF91EF919F918F912F91E1
:1022A0000F900FBE0F901F9018951F920F920FB6B0
:1022B0000F9211242F933F934F935F936F937F93CC
:1022C0008F939F93AF93BF93EF93FF9380E692E03A
:1022D0000E943410FF91EF91BF91AF919F918F9128
:1022E0007F916F915F914F913F912F910F900FBE12
:1022F0000F901F90189580E692E00E94F80F21E061
:10230000892B09F420E0822F0895E0E6F2E01382A1
:10231000128288EE93E0A0E0B0E084839583A683E8
:10232000B78383EA91E09183808385EC90E0958781
:10233000848784EC90E09787868780EC90E0918B8F
:10234000808B81EC90E0938B828B82EC90E0958B7C
:10235000848B86EC90E0978B868B118E128E138E79
:10236000148E089508950E9401140E94B2110E94D3
:10237000230EC6E2D0E10E94350E2097E1F30E94C1
:102380002610F9CF0C9462170C9462170C94FA176C
:10239000CF92DF92EF92FF920F931F93CF93DF9331
:1023A0006C017A018B01C0E0D0E0CE15DF0581F031
:1023B000D8016D918D01D601ED91FC910190F081D4
:1023C000E02DC6010995892B11F02196EECF7E01F3
:1023D000C701DF91CF911F910F91FF90EF90DF9098
:1023E000CF9008956115710579F0FB0101900020EF
:1023F000E9F73197AF01461B570BDC01ED91FC91DA
:102400000280F381E02D099480E090E008956FEA66
:1024100071E00C94F2110F931F93CF93DF93EC01B3
:102420000E94F2118C01CE010E940712800F911FB1
:10243000DF91CF911F910F91089580912D0390E02E
:1024400020912E03821B9109089590912E03809173
:102450002D03981750F4E92FF0E0E15DFC4F208147
:1024600030E09F5F90932E0302C02FEF3FEFC90132
:102470000895E0912E0380912D03E81730F4F0E0E9
:10248000E15DFC4F808190E008958FEF9FEF08950C
:102490000895CF92DF92EF92FF920F931F93CF9305
:1024A000DF937C01CB018A0120910903222389F06B
:1024B000EB016B01C40ED51ECC15DD0569F06991E9
:1024C000D701ED91FC910190F081E02DC7010995B4
:1024D000F3CF642F0E948D15C801DF91CF911F911A
:1024E0000F91FF90EF90DF90CF900895CF93DF93FF
:1024F0001F92CDB7DEB76983209109032223D1F063
:1025000020910A03203240F021E030E0FC013383C7
:10251000228380E090E015C080910B03E82FF0E06B
:10252000E45FFC4F998190838F5F80930B038093CE
:102530000A0305C061E0CE0101960E948D1581E07D
:1025400090E00F90DF91CF910895FC0113821282E9
:1025500088EE93E0A0E0B0E084839583A683B78300
:1025600082EC91E091838083089510922E03109263
:102570002D0310920B0310920A030C94D11481E0E6
:102580008093090360932C0310920B0310920A03AB
:1025900008950F93062F21E040910A036CE073E049
:1025A00080912C030E94371510920B0310920A039E
:1025B000109209030F9108954F925F926F927F924C
:1025C000AF92BF92CF92EF92FF920F931F93CF9350
:1025D000DF935C01F62ED42F28013901EE2021F182
:1025E0000E94BF12CE2DC43008F0C3E0C150C0F02D
:1025F00028E0C29FC0011124A301920104C0569596
:102600004795379527958A95D2F7CA01B901D50123
:10261000ED91FC910190F081E02DC5010995E6CF87
:1026200060E0C5010E94C9124D2FD13208F040E28E
:102630002C2D6FE273E08F2D0E94EF1410922E0369
:1026400080932D03DF91CF911F910F91FF90EF9019
:10265000CF90BF90AF907F906F905F904F90089514
:10266000CF92EF920F931F93C22EE12C00E010E067
:1026700098010E94DC121F910F91EF90CF90089566
:1026800021E00C94301361E00C94C9128DEF92E0BC
:102690000C94A5121F920F920FB60F9211242F9334
:1026A0003F938F939F93AF93BF93809150039091EB
:1026B0005103A0915203B091530330914F0323E093
:1026C000230F2D3720F40196A11DB11D05C026E86A
:1026D000230F0296A11DB11D20934F038093500339
:1026E00090935103A0935203B093530380915403EA
:1026F00090915503A0915603B09157030196A11DE7
:10270000B11D8093540390935503A0935603B09347
:102710005703BF91AF919F918F913F912F910F9050
:102720000FBE0F901F9018952FB7F894609150032B
:102730007091510380915203909153032FBF0895DC
:102740003FB7F8948091540390915503A09156039C
:10275000B091570326B5A89B05C02F3F19F00196ED
:10276000A11DB11D3FBFBA2FA92F982F8827820F17
:10277000911DA11DB11DBC01CD0142E0660F771F67
:10278000881F991F4A95D1F708958F929F92AF9213
:10279000BF92CF92DF92EF92FF926B017C010E9479
:1027A000A0134B015C01C114D104E104F10401F157
:1027B0000E94D0140E94A013DC01CB018819990952
:1027C000AA09BB09883E9340A105B10560F321E049
:1027D000C21AD108E108F10888EE880E83E0981E3D
:1027E000A11CB11CC114D104E104F10419F7DBCF21
:1027F000FF90EF90DF90CF90BF90AF909F908F9021
:102800000895789484B5826084BD84B5816084BD68
:1028100085B5826085BD85B5816085BDEEE6F0E059
:10282000808181608083E1E8F0E0108280818260B5
:102830008083808181608083E0E8F0E08081816036
:102840008083E1EBF0E0808184608083E0EBF0E066
:10285000808181608083EAE7F0E08081846080830A
:1028600080818260808380818160808380818068B4
:1028700080831092C1000895833081F028F4813064
:1028800099F08230A1F008958730A9F08830B9F02E
:102890008430D1F4809180008F7D03C080918000CE
:1028A0008F7780938000089584B58F7702C084B5B8
:1028B0008F7D84BD08958091B0008F7703C0809193
:1028C000B0008F7D8093B0000895CF93DF9390E0A8
:1028D000FC01EB55FD4F2491FC01E754FD4F849121
:1028E000882361F190E0880F991FFC01EF51FD4FA3
:1028F000C591D491FC01E952FD4FA591B4916111AC
:1029000009C09FB7F8948881209582238883EC9131
:102910002E230BC0623061F49FB7F8948881322F68
:10292000309583238883EC912E2B2C939FBF06C078
:102930008FB7F894E8812E2B28838FBFDF91CF913A
:1029400008951F93CF93DF93282F30E0F901EF56BE
:10295000FD4F8491F901EB55FD4FD491F901E754F6
:10296000FD4FC491CC23C1F0162F81110E943C145D
:10297000EC2FF0E0EE0FFF1FE952FD4FA591B4914F
:102980009FB7F894111104C08C91D095D82302C040
:10299000EC91DE2BDC939FBFDF91CF911F910895C7
:1029A00008951092C50381E08093C3031092C2037F
:1029B00061E082E10E94A11461E083E10E94A11420
:1029C000E9EBF0E080818E7F808380818D7F808342
:1029D00088E48093B80085E48093BC000895413278
:1029E00008F043C09091C5039111FCCF91E0909302
:1029F000C5032093C3032FEF2093580310929D0328
:102A0000240F20939C039093C4039091C403880FD8
:102A1000892B8093C4038091C203813061F41092AA
:102A2000C2038091C4038093BB008091BC0083FDEE
:102A3000F8CF85EC01C085EE8093BC008091C50382
:102A40008130E1F380919D03841710F440919D0340
:102A5000AEE9B3E0962FFB018E2F891B841718F483
:102A60008D918193F9CF842F089580E008950F937D
:102A7000413208F04AC09091C5039111FCCF32E079
:102A80003093C5030093C3033FEF30935803109274
:102A90009D0340939C03562FAEE9B3E0FB013E2F0C
:102AA000351B341718F431913D93F9CF1092C403BC
:102AB0003091C403880F832B8093C4038091C20399
:102AC000813061F41092C2038091C4038093BB00F3
:102AD0008091BC0083FDF8CF85EC01C085EE80932A
:102AE000BC00222321F08091C5038230D1F3809174
:102AF00058038F3F79F080915803803241F08091E4
:102B00005803803331F094E005C091E003C092E0B7
:102B100001C093E0892F0F91089540917A03262FE9
:102B200030E0240F311D21323105DCF42091C50342
:102B30002430C9F4FC0180E090E0861758F430910D
:102B40007A032191DC01A458BC4FA30FB11D2C9333
:102B50000196F3CF80917A03680F60937A0380E047
:102B6000089581E0089582E0089585ED8093BC008A
:102B70008091BC0084FDFCCF1092C503089585ECC4
:102B80008093BC001092C50308951F920F920FB658
:102B90000F9211242F933F934F935F936F937F93E3
:102BA0008F939F93AF93BF93EF93FF938091B9005F
:102BB000887F803609F49EC078F5883209F45DC0BC
:102BC00090F4803109F456C038F4882309F4F5C034
:102BD000883009F44FC0F5C0883109F44EC0803206
:102BE00009F45FC0EEC0803409F46AC058F4803341
:102BF00009F457C0883309F0E4C0809358030E9459
:102C0000BF15DFC0803509F44FC0883509F45DC0B9
:102C1000883409F0D6C0D3C0883909F4C4C0A8F4F8
:102C2000883709F467C038F4883609F463C0803700
:102C300009F460C0C6C0883809F4B5C0803909F409
:102C40005FC0803809F0BDC05BC0803B09F483C021
:102C500038F4803A09F466C0883A09F47CC0B1C0FF
:102C6000803C09F4A4C0883C09F4A1C0883B09F465
:102C700087C0A7C08091C40310C090919D0380912C
:102C80009C03981770F5E0919D0381E08E0F80936F
:102C90009D03F0E0E256FC4F80818093BB0085EC01
:102CA00083C0809358038BC0E0919D0381E08E0F19
:102CB00080939D038091BB00F0E0E256FC4F80833F
:102CC00090919D0380919C036BC0E0919D0381E0F6
:102CD0008E0F80939D038091BB00F0E0E256FC4F85
:102CE00080838091C30381116AC081E08093C20315
:102CF00084EA5EC083E08093C50310925903CFCF6E
:102D000080915903803208F04EC0E091590381E070
:102D10008E0F809359038091BB00F0E0E65AFC4F80
:102D20008083BDCF0E94BF1580915903803230F45B
:102D3000E0915903F0E0E65AFC4F1082609159038C
:102D400070E0E091BE03F091BF038AE593E009953E
:102D50001092590336C084E08093C50310927B0320
:102D600010927A03E091C003F091C103099580911C
:102D70007A03811105C081E080937A0310927C036D
:102D8000E0917B0381E08E0F80937B03F0E0E458B9
:102D9000FC4F80818093BB0090917B0380917A03EC
:102DA000981708F47CCF85E88093BC000AC085ECB6
:102DB0008093BC001092C50304C0109258030E9477
:102DC000B515FF91EF91BF91AF919F918F917F9139
:102DD0006F915F914F913F912F910F900FBE0F9088
:102DE0001F90189597FB072E16F4009407D077FDD7
:102DF00009D00E942E1707FC05D03EF490958195CE
:102E00009F4F0895709561957F4F0895A1E21A2E06
:102E1000AA1BBB1BFD010DC0AA1FBB1FEE1FFF1F7E
:102E2000A217B307E407F50720F0A21BB30BE40BCE
:102E3000F50B661F771F881F991F1A9469F7609515
:102E40007095809590959B01AC01BD01CF010895CF
:102E5000EE0FFF1F0590F491E02D0994AA1BBB1BF8
:102E600051E107C0AA1FBB1FA617B70710F0A61B8A
:102E7000B70B881F991F5A95A9F780959095BC01AB
:102E8000CD010895EF920F931F93CF93DF93E80145
:102E900047FD02C034E001C034E1042E000C550BA4
:102EA00057FF03C0519541955109E32E022F242F5E
:102EB000AE010E94E41ACE01DF91CF911F910F91D4
:102EC000EF9008950F931F93CF93DF938230910576
:102ED00010F482E090E0E091C803F091C90320E093
:102EE00030E0A0E0B0E0309719F1408151810281DB
:102EF000138148175907C8F08417950769F410978C
:102F000031F012960C93129713961C9327C00093DE
:102F1000C8031093C90322C02115310519F04217C7
:102F2000530718F49A01BD01EF01DF01F801DBCF6F
:102F300021153105F9F0281B390B2430310580F4B7
:102F40008A819B816115710521F0FB019383828346
:102F500004C09093C9038093C803FE01329644C015
:102F6000FE01E20FF31F81939193225031093983BF
:102F700028833AC02091C6033091C703232B41F424
:102F800020910201309103013093C7032093C603BF
:102F900020910001309101012115310541F42DB737
:102FA0003EB74091040150910501241B350BE0917F
:102FB000C603F091C703E217F307A0F42E1B3F0BE3
:102FC0002817390778F0AC014E5F5F4F241735079B
:102FD00048F04E0F5F1F5093C7034093C603819381
:102FE000919302C0E0E0F0E0CF01DF91CF911F911B
:102FF0000F910895CF93DF93009709F481C0FC01EE
:10300000329713821282A091C803B091C90310971E
:1030100081F420813181820F931F2091C60330916A
:10302000C7032817390751F5F093C703E093C60388
:1030300067C0ED0120E030E0CE17DF0740F44A81A1
:103040005B819E0141155105F1F0EA01F5CFD38373
:10305000C28340815181840F951FC817D90759F445
:1030600088819981840F951F0296918380838A813C
:103070009B81938382832115310529F4F093C90341
:10308000E093C8033DC0E901FB83EA83499159916C
:10309000C40FD51FEC17FD0761F480819181840F67
:1030A000951F0296E90199838883828193819B838E
:1030B0008A83E0E0F0E012968D919C91139700973F
:1030C00019F0FD01DC01F7CF8D919C9111979D01C5
:1030D0002E5F3F4F820F931F2091C6033091C7038D
:1030E0002817390769F4309729F41092C903109210
:1030F000C80302C013821282B093C703A093C60311
:10310000DF91CF910895FB01DC0105900D92002025
:10311000E1F70895FB01DC0102C001900D924150DE
:103120005040D8F70895DC0101C06D9341505040E4
:10313000E0F70895BB274A3031F4992322F4BDE229
:10314000909581959F4F0C94C818BB27FA01A62F24
:103150006217710581059105330B30FB66F0AA27D4
:10316000660F771F881F991FAA1FA21710F0A21BB6
:1031700063953850A9F7A05DAA3308F0A95DA19323
:1031800036F7B111B1931082CA010C942C1DBB27E4
:10319000FB015527AA27880F991FAA1FA41710F013
:1031A000A41B83955051B9F7A05DAA3308F0A95D1F
:1031B000A193009779F7B111B1931192CB010C94BF
:1031C0002C1DAEE0B0E0E7EEF8E10C94E41D0D89B3
:1031D0001E8986E08C831A8309838FEF9FE79E8385
:1031E0008D83AE01475E5F4F6F89788DCE0101966A
:1031F0000E940319EF81F885E00FF11F10822E96CF
:10320000E4E00C94001EABE0B0E0E9E0F9E10C94DE
:10321000D61D6C017B018A01FC0117821682838115
:1032200081FFCCC1CE0101963C01F6019381F701EB
:1032300093FD859193FF81917F01882309F4BAC1A1
:10324000853239F493FD859193FF81917F01853219
:1032500029F4B60190E00E943C1DE7CF912C212C6F
:10326000312CFFE1F315D8F08B3279F038F480324D
:1032700079F08332A1F4232D20611DC08D3261F0DD
:10328000803369F4232D216016C0832D8260382E8F
:10329000E32DE4603E2E2AC0F32DF8601DC037FCFC
:1032A0002DC020ED280F2A3040F08E32B9F436FCC4
:1032B00081C1232D2064322E19C036FE06C08AE05B
:1032C000989E200D1124922E11C0EAE02E9E200D12
:1032D0001124222EF32DF0623F2E08C08C3621F4EB
:1032E000832D8068382E02C0883641F4F70193FDA3
:1032F000859193FF81917F018111B3CF982F9F7D9D
:103300009554933028F40C5F1F4F9FE399830DC0B1
:10331000833631F0833771F0833509F059C021C00D
:10332000F801808189830E5F1F4F88248394912C3C
:10333000530113C02801F2E04F0E511CF801A08088
:10334000B18036FE03C0692D70E002C06FEF7FEFE1
:10335000C5010E94211D4C018201F32DFF773F2EF4
:1033600016C0280122E0420E511CF801A080B18055
:1033700036FE03C0692D70E002C06FEF7FEFC5011C
:103380000E94161D4C01F32DF0683F2E820133FC84
:103390001BC0822D90E088169906B0F4B60180E239
:1033A00090E00E943C1D2A94F4CFF50137FC8591F2
:1033B00037FE81915F01B60190E00E943C1D211013
:1033C0002A9421E0821A91088114910471F7E8C0CF
:1033D000843611F0893641F5F80137FE07C0608167
:1033E0007181828193810C5F1F4F08C06081718160
:1033F000072E000C880B990B0E5F1F4FF32DFF76E5
:103400003F2E97FF09C090958095709561957F4FED
:103410008F4F9F4FF0683F2E2AE030E0A3010E94BB
:10342000781D882E861845C0853731F4232D2F7ED0
:10343000B22E2AE030E025C0932D997FB92E8F3629
:10344000C1F018F4883579F0B5C0803719F08837A5
:1034500021F0B0C0E92FE061BE2EB4FE0DC0FB2DFF
:10346000F460BF2E09C034FE0AC0292F2660B22E98
:1034700006C028E030E005C020E130E002C020E1D5
:1034800032E0F801B7FE07C06081718182819381CB
:103490000C5F1F4F06C06081718180E090E00E5F7D
:1034A0001F4FA3010E94781D882E8618FB2DFF77E1
:1034B0003F2E36FE0DC0232D2E7FA22E891458F4E8
:1034C00034FE0BC032FC09C0832D8E7EA82E05C0B1
:1034D000B82CA32C03C0B82C01C0B92CA4FE0FC07B
:1034E000FE01E80DF11D8081803321F49A2D997E33
:1034F000A92E09C0A2FE06C0B394B39404C08A2DBD
:10350000867809F0B394A3FC11C0A0FE06C0B214E3
:1035100088F4280C922C9B180EC0B21460F4B601EB
:1035200080E290E00E943C1DB394F7CFB21418F4EF
:103530002B1802C0982C212CA4FE10C0B60180E3E9
:1035400090E00E943C1DA2FE17C0A1FC03C088E7CA
:1035500090E002C088E590E0B6010CC08A2D867824
:1035600059F0A1FE02C08BE201C080E2A7FC8DE20F
:10357000B60190E00E943C1D891438F4B60180E346
:1035800090E00E943C1D9A94F7CF8A94F301E80DD5
:10359000F11D8081B60190E00E943C1D8110F5CFA5
:1035A000222009F442CEB60180E290E00E943C1D48
:1035B0002A94F6CFF6018681978102C08FEF9FEFA4
:1035C0002B96E2E10C94F21DA9E0B0E0EAEEFAE1FC
:1035D0000C94DC1D6A01122FB02E2BE3201720F073
:1035E000FF24F394F00E02C02CE3F22E0F2D27E0FF
:1035F000AE014F5F5F4F0E943E1CBC014981842F8A
:103600008970813031F0E1FC06C0E0FE06C090E236
:1036100005C09DE203C09BE201C090E05E2D5071A9
:1036200043FF3CC0911102C083E001C084E08117D8
:1036300018F4212F281B01C020E051110BC0F60106
:10364000822F30E2882319F031938150FBCFC20ED4
:10365000D11C20E0992329F0D6019C93F6013196E4
:103660006F01C6010396E2FE0AC03EE4D6013C9318
:1036700041E411964C93119712963C9306C03EE696
:10368000F601308341E641833283FC01322F40E270
:10369000332309F442C041933150FACF42FF44C072
:1036A000911102C083E001C084E0811718F4212F3A
:1036B000281B01C020E051110BC0F601822F30E21F
:1036C000882319F031938150FBCFC20ED11C20E02A
:1036D000992329F0D6019C93F60131966F01C6011A
:1036E0000396E2FE0BC039E4D6013C933EE411960A
:1036F0003C93119736E412963C9307C039E6F601E5
:1037000030833EE6318336E63283FC01322F40E2DD
:10371000332319F041933150FBCFFC01E20FF11D2F
:1037200010828EEF9FEFA6C021E030E0911102C021
:1037300020E030E0161617061CF4FB01319602C09B
:10374000E1E0F0E02E0F3F1FBB2021F0EB2DF0E079
:10375000319602C0E0E0F0E02E0F3F1FE12FF0E0D5
:103760002E173F071CF4121B212F01C020E08E2DC5
:10377000887159F4F601822F30E2882319F03193D1
:103780008150FBCFC20ED11C20E0992329F0D60135
:103790009C93F60131966F0151110BC0F601822FF7
:1037A00090E3882319F091938150FBCFC20ED11C76
:1037B00020E00F2D060F9A81342F307144FF03C093
:1037C000913309F40150101624F4093018F008E080
:1037D00001C001E0AB0177FF02C040E050E0FB0117
:1037E000E41BF50BA1E0B0E0AC0FBD1FEA0FFB1F1F
:1037F0008EE2A82E4B01801A91080B2D10E0119536
:10380000019511094F3FBFEF5B0721F4D601AC9240
:1038100011966D01641775072CF08416950614F443
:10382000818101C080E3415051093196D601119642
:103830007D014017510724F0D6018C936701E2CF38
:103840006417750739F4963320F4953319F4311160
:1038500001C081E3F6018083F701822F90E2882383
:1038600019F091938150FBCFF701E20FF11D108207
:1038700080E090E02996ECE00C94F81D283008F0E8
:1038800027E03327DA01990F311D87FD91600096FB
:103890006105710539F432602E5F3D9330E32A955E
:1038A000E1F708959F3F30F080387105610509F018
:1038B0003C5F3C5F3D93913008F08068911DDF9341
:1038C000CF931F930F93FF92EF92192F987F9695A6
:1038D000E92F96959695E90FFF27E051FF4F99271D
:1038E0003327EE24FF24A701E701059008940794ED
:1038F00028F4360FE71EF81E491F511D660F771F6B
:10390000881F991F0694A1F70590079428F4E70EE5
:10391000F81E491F561FC11D770F881F991F661F6C
:103920000694A1F70590079428F4F80E491F561F36
:10393000C71FD11D880F991F661F771F0694A1F717
:103940000590079420F4490F561FC71FD81F990FE1
:10395000661F771F881F0694A9F78491109517702A
:1039600041F0D695C79557954795F794E7941A95E2
:10397000C1F7E6E9F0E068941590159135916591ED
:10398000959105907FE27395E118F10A430B560B70
:10399000C90BD009C0F7E10CF11E431F561FC91F08
:1039A000D01D7EF4703311F48A95E6CFE89401506F
:1039B00030F0080F0AF40027021708F4202F23958F
:1039C000022F7A3328F079E37D932A95E9F710C026
:1039D0007D932A9589F6069497956795379517955F
:1039E0001794E118F10A430B560BC90BD00998F054
:1039F00023957E9173957A3308F070E37C932013BE
:103A0000B8F77E9170617D9330F0839571E37D937B
:103A100070E32A95E1F71124EF90FF900F911F9129
:103A2000CF91DF91992787FD90950895FC0105902E
:103A3000615070400110D8F7809590958E0F9F1FB0
:103A40000895FC016150704001900110D8F78095F5
:103A500090958E0F9F1F0895DC01FC01672F7191D7
:103A60007723E1F7329704C07C916D937083629164
:103A7000AE17BF07C8F308950F931F93CF93DF933B
:103A8000FB01238121FD03C08FEF9FEF2CC022FF9C
:103A900016C046815781248135814217530744F46B
:103AA000A081B1819D012F5F3F4F318320838C9393
:103AB000268137812F5F3F4F3783268314C08B01C8
:103AC000EC01FB010084F185E02D0995892BE1F6DD
:103AD000D80116968D919C911797019617969C93F5
:103AE0008E931697CE01DF91CF911F910F9108957C
:103AF000FA01AA27283051F1203181F1E8946F931F
:103B00006E7F6E5F7F4F8F4F9F4FAF4FB1E03ED0C4
:103B1000B4E03CD0670F781F891F9A1FA11D680F62
:103B2000791F8A1F911DA11D6A0F711D811D911D95
:103B3000A11D20D009F468943F912AE0269F11240A
:103B40003019305D3193DEF6CF010895462F47706E
:103B5000405D4193B3E00FD0C9F7F6CF462F4F70C9
:103B6000405D4A3318F0495D31FD4052419302D027
:103B7000A9F7EACFB4E0A6959795879577956795CD
:103B8000BA95C9F700976105710508959B01AC01CD
:103B90000A2E06945795479537952795BA95C9F7F4
:103BA000620F731F841F951FA01D08952F923F92CF
:103BB0004F925F926F927F928F929F92AF92BF923D
:103BC000CF92DF92EF92FF920F931F93CF93DF93E9
:103BD000CDB7DEB7CA1BDB0B0FB6F894DEBF0FBE46
:103BE000CDBF09942A88398848885F846E847D8493
:103BF0008C849B84AA84B984C884DF80EE80FD8095
:103C00000C811B81AA81B981CE0FD11D0FB6F8940A
:103C1000DEBF0FBECDBFED01089511E0CAE7D1E0D0
:103C200004C0FE010E9428172196CC37D107C9F79E
:043C3000F894FFCF36
:103C34000000CA03200000015A0059005800426CD9
:103C4400756500477265656E00526564004865617C
:103C540064696E6700506974636800526F6C6C002D
:103C64006D2F735E32007261642F730075540043CC
:103C7400006D2F73006C7578006D572F636D5E3285
:103C8400006465670068506100300136013C013F03
:103C940001B10141014501B1014901510155010041
:103CA400000000A601AA018D03210500000000D533
:103CB4000AC811A50A930A810AB70A000000000184
:103CC4000CC811400B070B280B580B6D61670000E3
:103CD4000000005510C811F80F121004109C100DAC
:103CE4000A006E616E00696E66006F766600000001
:0E3CF4000000761249121D12251239124812D4
:00000001FF
