:100000000C9453000C947B000C947B000C947B00AC
:100010000C947B000C947B000C947B000C947B0074
:100020000C947B000C947B000C947B000C947B0064
:100030000C947B000C947B000C947B000C947B0054
:100040000C9427030C947B000C9431020C946302F3
:100050000C947B000C947B000C947B000C947B0034
:100060000C947B000C947B0001020408102040805B
:1000700001020408102001020408102004040404F2
:100080000404040402020202020203030303030342
:1000900000000000250028002B00000000002400C4
:1000A00027002A00930211241FBECFEFD8E0DEBF45
:1000B000CDBF11E0A0E0B1E0E6EFFEE002C00590A8
:1000C0000D92A634B107D9F722E0A6E4B1E001C051
:1000D0001D92A03CB207E1F710E0C3E5D0E004C0F8
:1000E0002197FE010E948904C235D107C9F70E94F9
:1000F000C1020C9479070C940000CF93CEE060E02D
:100100008C2F0E942A04CF5FC431C9F761E071E0EF
:100110008AE192E00E94150326E040E855E260E0A3
:1001200070E08AE192E00E94BD018AE192E00E94C3
:100130002202892B31F460E070E0CB010E9496032B
:10014000F4CF67E071E08AE192E0CF910C9415035F
:100150000F931F93CF9302E611E0CEE08C2F0E9405
:100160000D04F801819391938F01CF5FC431B1F7F2
:10017000809151018F93809150018F9380914F0115
:100180008F9380914E018F9380914D018F93809139
:100190004C018F9380914B018F9380914A018F93F3
:1001A000809149018F93809148018F9380914701FD
:1001B0008F93809146018F938FE091E09F938F936F
:1001C00082E591E09F938F930E948F048DB79EB735
:1001D00040960FB6F8949EBF0FBE8DBF62E571E0EA
:1001E0008AE192E0CF911F910F910C940F03FC01D3
:1001F000918D228D892F90E0805C9F4F821B910909
:100200008F7399270895FC01918D828D981731F095
:10021000828DE80FF11D858D90E008958FEF9FEF9F
:100220000895FC01918D828D981761F0828DDF0118
:10023000A80FB11D5D968C91928D9F5F9F73928FD9
:1002400090E008958FEF9FEF089589E892E0892B61
:1002500049F080E090E0892B29F00E948902811109
:100260000C9400000895FC01848DDF01A80FB11DDE
:10027000A35ABF4F2C91848D90E001968F739927DC
:10028000848FA689B7892C93A089B1898C918064C9
:100290008C93938D848D981306C00288F389E02D8A
:1002A00080818F7D80830895EF92FF920F931F933B
:1002B000CF93DF93EC0181E0888F9B8D8C8D981319
:1002C00005C0E889F989808185FD24C0F62E0B8D53
:1002D00010E00F5F1F4F0F731127E02E8C8DE81277
:1002E0000CC00FB607FCFACFE889F989808185FF39
:1002F000F5CFCE010E943301F1CF8B8DFE01E80FC7
:10030000F11DE35AFF4FF0820B8FEA89FB89808150
:10031000806207C0EE89FF896083E889F98980815E
:100320008064808381E090E0DF91CF911F910F91F5
:10033000FF90EF900895CF93DF93EC01888D882391
:10034000C9F0EA89FB89808185FD05C0A889B98942
:100350008C9186FD0FC00FB607FCF5CF808185FF1D
:10036000F2CFA889B9898C9185FFEDCFCE010E948B
:100370003301E7CFDF91CF910895CF92DF92EF92D3
:10038000FF921F93CF93DF93EC016A017B01122F41
:10039000E889F98982E080834115514E6105710534
:1003A000B1F060E079E08DE390E0A70196010E9452
:1003B0006704DA01C9010197A109B109B695A795AA
:1003C000979587959C01211580E13807A8F0E88969
:1003D000F989108260E874E88EE190E0A701960147
:1003E0000E946704DA01C9010197A109B109B69514
:1003F000A795979587959C01EC85FD853083EE85C3
:10040000FF852083188EEC89FD891083EA89FB899A
:10041000808180618083EA89FB8980818860808314
:10042000EA89FB89808180688083EA89FB898081F1
:100430008F7D8083DF91CF911F91FF90EF90DF90B0
:10044000CF900895FC01538D448D252F30E0842FEB
:1004500090E0821B930B541710F0CF9608950197EC
:1004600008951F920F920FB60F9211242F938F931E
:100470009F93EF93FF93E0912A02F0912B028081EA
:10048000E0913002F091310282FD12C090818091A2
:1004900033028F5F8F7320913402821751F0E09105
:1004A0003302F0E0E65EFD4F958F8093330201C08A
:1004B0008081FF91EF919F918F912F910F900FBEAF
:1004C0000F901F9018951F920F920FB60F92112444
:1004D0002F933F934F935F936F937F938F939F934C
:1004E000AF93BF93EF93FF938AE192E00E943301B1
:1004F000FF91EF91BF91AF919F918F917F916F91FC
:100500005F914F913F912F910F900FBE0F901F90D1
:1005100018958AE192E00E94F70021E0892B09F406
:1005200020E0822F0895EAE1F2E01382128288EE41
:1005300093E0A0E0B0E084839583A683B7838BE249
:1005400091E09183808385EC90E09587848784ECAB
:1005500090E09787868780EC90E0918B808B81EC90
:1005600090E0938B828B82EC90E0958B848B86EC71
:1005700090E0978B868B118E128E138E148E0895B9
:1005800008950E94D2030E94C0020E947D00C5E22D
:10059000D1E00E94A8002097E1F30E942501F9CF45
:1005A000CF92DF92EF92FF920F931F93CF93DF933F
:1005B0006C017A018B01C0E0D0E0CE15DF0581F03F
:1005C000D8016D918D01D601ED91FC910190F081E2
:1005D000E02DC6010995892B11F02196EECF7E0101
:1005E000C701DF91CF911F910F91FF90EF90DF90A6
:1005F000CF9008956115710579F0FB0101900020FD
:10060000E9F73197AF01461B570BDC01ED91FC91E7
:100610000280F381E02D099480E090E008950C942D
:10062000FA0267E371E00C94FA020F931F93CF93E1
:10063000DF93EC010E94FA028C01CE010E941103AB
:10064000800F911FDF91CF911F910F9108951F92FD
:100650000F920FB60F9211242F933F938F939F9376
:10066000AF93BF938091B8029091B902A091BA0262
:10067000B091BB023091B70223E0230F2D3720F455
:100680000196A11DB11D05C026E8230F0296A11DEC
:10069000B11D2093B7028093B8029093B902A09342
:1006A000BA02B093BB028091BC029091BD02A091AE
:1006B000BE02B091BF020196A11DB11D8093BC0284
:1006C0009093BD02A093BE02B093BF02BF91AF91C1
:1006D0009F918F913F912F910F900FBE0F901F9080
:1006E00018953FB7F8948091BC029091BD02A091FB
:1006F000BE02B091BF0226B5A89B05C02F3F19F0DE
:100700000196A11DB11D3FBFBA2FA92F982F882791
:10071000820F911DA11DB11DBC01CD0142E0660FEC
:10072000771F881F991F4A95D1F708958F929F923E
:10073000AF92BF92CF92DF92EF92FF926B017C015A
:100740000E9471034B015C01C114D104E104F10466
:1007500001F10E9466040E947103DC01CB0188193B
:100760009909AA09BB09883E9340A105B10560F328
:1007700021E0C21AD108E108F10888EE880E83E072
:10078000981EA11CB11CC114D104E104F10419F795
:10079000DBCFFF90EF90DF90CF90BF90AF909F9016
:1007A0008F900895789484B5826084BD84B581600B
:1007B00084BD85B5826085BD85B5816085BDEEE669
:1007C000F0E0808181608083E1E8F0E01082808148
:1007D00082608083808181608083E0E8F0E08081B6
:1007E00081608083E1EBF0E0808184608083E0EBD6
:1007F000F0E0808181608083EAE7F0E080818460BE
:100800008083808182608083808181608083808119
:10081000806880831092C10008958E3008F08E5059
:100820002091000190E4299F900111248770822B70
:1008300080937C0080917A00806480937A0080911C
:100840007A0086FDFCCF809178002091790090E0BD
:10085000922B0895CF93DF9390E0FC01E859FF4F6E
:100860002491FC01E458FF4F8491882361F190E0CA
:10087000880F991FFC01E656FF4FC591D491FC01EA
:10088000E057FF4FA591B491611109C09FB7F8944B
:100890008881209582238883EC912E230BC06230BF
:1008A00061F49FB7F8948881322F30958323888331
:1008B000EC912E2B2C939FBF06C08FB7F894E88144
:1008C0002E2B28838FBFDF91CF9108950895A1E249
:1008D0001A2EAA1BBB1BFD010DC0AA1FBB1FEE1FBA
:1008E000FF1FA217B307E407F50720F0A21BB30B05
:1008F000E40BF50B661F771F881F991F1A9469F781
:1009000060957095809590959B01AC01BD01CF01DC
:100910000895EE0FFF1F0590F491E02D0994AEE0CD
:10092000B0E0E5E9F4E00C9450070D891E8986E0FB
:100930008C831A8309838FEF9FE79E838D83AE019B
:10094000475E5F4F6F89788DCE0101960E94B1049A
:10095000EF81F885E00FF11F10822E96E4E00C94F1
:100960006C07ABE0B0E0E7EBF4E00C9442076C01FD
:100970007B018A01FC0117821682838181FFCCC131
:10098000CE0101963C01F6019381F70193FD85911B
:1009900093FF81917F01882309F4BAC1853239F42C
:1009A00093FD859193FF81917F01853229F4B601F2
:1009B00090E00E94A806E7CF912C212C312CFFE17A
:1009C000F315D8F08B3279F038F4803279F0833235
:1009D000A1F4232D20611DC08D3261F0803369F4B4
:1009E000232D216016C0832D8260382EE32DE46014
:1009F0003E2E2AC0F32DF8601DC037FC2DC020ED1F
:100A0000280F2A3040F08E32B9F436FC81C1232DF4
:100A10002064322E19C036FE06C08AE0989E200D52
:100A20001124922E11C0EAE02E9E200D1124222EB8
:100A3000F32DF0623F2E08C08C3621F4832D8068A0
:100A4000382E02C0883641F4F70193FD859193FF5B
:100A500081917F018111B3CF982F9F7D9554933061
:100A600028F40C5F1F4F9FE399830DC0833631F04C
:100A7000833771F0833509F059C021C0F8018081B6
:100A800089830E5F1F4F88248394912C530113C0D8
:100A90002801F2E04F0E511CF801A080B18036FE13
:100AA00003C0692D70E002C06FEF7FEFC5010E94A7
:100AB0009D064C018201F32DFF773F2E16C02801C1
:100AC00022E0420E511CF801A080B18036FE03C026
:100AD000692D70E002C06FEF7FEFC5010E949206A2
:100AE0004C01F32DF0683F2E820133FC1BC0822D98
:100AF00090E088169906B0F4B60180E290E00E947A
:100B0000A8062A94F4CFF50137FC859137FE819130
:100B10005F01B60190E00E94A80621102A9421E00E
:100B2000821A91088114910471F7E8C0843611F09B
:100B3000893641F5F80137FE07C0608171818281F5
:100B400093810C5F1F4F08C060817181072E000CDC
:100B5000880B990B0E5F1F4FF32DFF763F2E97FFEB
:100B600009C090958095709561957F4F8F4F9F4FED
:100B7000F0683F2E2AE030E0A3010E94E406882EB0
:100B8000861845C0853731F4232D2F7EB22E2AE0FA
:100B900030E025C0932D997FB92E8F36C1F018F41F
:100BA000883579F0B5C0803719F0883721F0B0C0AA
:100BB000E92FE061BE2EB4FE0DC0FB2DF460BF2E08
:100BC00009C034FE0AC0292F2660B22E06C028E0D4
:100BD00030E005C020E130E002C020E132E0F80161
:100BE000B7FE07C060817181828193810C5F1F4FC6
:100BF00006C06081718180E090E00E5F1F4FA3010D
:100C00000E94E406882E8618FB2DFF773F2E36FEC5
:100C10000DC0232D2E7FA22E891458F434FE0BC054
:100C200032FC09C0832D8E7EA82E05C0B82CA32CC3
:100C300003C0B82C01C0B92CA4FE0FC0FE01E80D02
:100C4000F11D8081803321F49A2D997EA92E09C04F
:100C5000A2FE06C0B394B39404C08A2D867809F02E
:100C6000B394A3FC11C0A0FE06C0B21488F4280CF3
:100C7000922C9B180EC0B21460F4B60180E290E092
:100C80000E94A806B394F7CFB21418F42B1802C030
:100C9000982C212CA4FE10C0B60180E390E00E94A5
:100CA000A806A2FE17C0A1FC03C088E790E002C01E
:100CB00088E590E0B6010CC08A2D867859F0A1FE37
:100CC00002C08BE201C080E2A7FC8DE2B60190E099
:100CD0000E94A806891438F4B60180E390E00E94CF
:100CE000A8069A94F7CF8A94F301E80DF11D80814C
:100CF000B60190E00E94A8068110F5CF222009F4E9
:100D000042CEB60180E290E00E94A8062A94F6CF77
:100D1000F6018681978102C08FEF9FEF2B96E2E16B
:100D20000C945E07FC010590615070400110D8F7EB
:100D3000809590958E0F9F1F0895FC016150704023
:100D400001900110D8F7809590958E0F9F1F089500
:100D50000F931F93CF93DF93FB01238121FD03C0EA
:100D60008FEF9FEF2CC022FF16C046815781248150
:100D700035814217530744F4A081B1819D012F5F53
:100D80003F4F318320838C93268137812F5F3F4FE4
:100D90003783268314C08B01EC01FB010084F185AD
:100DA000E02D0995892BE1F6D80116968D919C913D
:100DB0001797019617969C938E931697CE01DF9105
:100DC000CF911F910F910895FA01AA27283051F170
:100DD000203181F1E8946F936E7F6E5F7F4F8F4F6C
:100DE0009F4FAF4FB1E03ED0B4E03CD0670F781FCB
:100DF000891F9A1FA11D680F791F8A1F911DA11DB0
:100E00006A0F711D811D911DA11D20D009F46894E8
:100E10003F912AE0269F11243019305D3193DEF690
:100E2000CF010895462F4770405D4193B3E00FD046
:100E3000C9F7F6CF462F4F70405D4A3318F0495D31
:100E400031FD4052419302D0A9F7EACFB4E0A69514
:100E50009795879577956795BA95C9F70097610536
:100E6000710508959B01AC010A2E0694579547958C
:100E700037952795BA95C9F7620F731F841F951F81
:100E8000A01D08952F923F924F925F926F927F9292
:100E90008F929F92AF92BF92CF92DF92EF92FF928A
:100EA0000F931F93CF93DF93CDB7DEB7CA1BDB0B36
:100EB0000FB6F894DEBF0FBECDBF09942A883988DB
:100EC00048885F846E847D848C849B84AA84B984E2
:100ED000C884DF80EE80FD800C811B81AA81B981EE
:100EE000CE0FD11D0FB6F894DEBF0FBECDBFED0102
:060EF0000895F894FFCF05
:100EF60001426567696E00436F6E6E656374002517
:100F0600692C2025692C2025692C2025692C202573
:100F1600692C2025690A00000000005401D002F760
:100F260000110103019B010D0A006E616E00696EDE
:060F360066006F76660004
:00000001FF
