:100000000C945E000C9486000C9486000C94860080
:100010000C9486000C9486000C9486000C94860048
:100020000C9486000C9486000C9486000C94860038
:100030000C9486000C9486000C9486000C94860028
:100040000C9488060C9486000C9486000C94860010
:100050000C9486000C9486000C9486000C94860008
:100060000C9486000C948600000000080002010039
:100070000003040700000000000000000102040863
:100080001020408001020408102001020408102002
:10009000040404040404040402020202020203032E
:1000A0000303030300000000250028002B000000CC
:1000B0000000240027002A00FB00A60411241FBE14
:1000C000CFEFD8E0DEBFCDBF11E0A0E0B1E0E2E2CB
:1000D000F1E102C005900D92AA37B107D9F721E0EE
:1000E000AAE7B1E001C01D92A23BB207E1F710E020
:1000F000CEE5D0E004C02197FE010E947A08CC35FD
:10010000D107C9F70E9479060C948F080C9400005F
:10011000AF92CF92EF920F931F93CF93DF93CDB710
:10012000DEB72C970FB6F894DEBF0FBECDBF80911F
:10013000000190910101A0910201B0910301898712
:100140009A87AB87BC8788E0E4E0F1E0DE01119696
:1001500001900D928A95E1F7A12CC12CE12C8E0122
:100160000F5F1F4F9E01275F3F4F44E061E08EE726
:1001700091E00E94DA036AE570E08EE791E00E9468
:100180008A022C960FB6F894DEBF0FBECDBFDF916A
:10019000CF911F910F91EF90CF90AF9008950F9353
:1001A00040917A0150917B0160917C0170917D01B9
:1001B00000E022E08EE791E00E9458042DEC3CEC38
:1001C0004CEC5DE360917A0170917B0180917C0140
:1001D00090917D010E94B20460937A0170937B013B
:1001E00080937C0190937D0168EE73E08EE791E04F
:1001F0000F910C9426018EE791E00C94FF00FC0116
:1002000080ED97E092A381A3178A108E13A214A207
:1002100015A216A2148215820895892B99F0809157
:10022000A5019091A6012091A7013091A801821B00
:10023000930B8536910544F00E94D2067093A60177
:100240006093A50180E0089581E008952F923F9288
:100250004F925F926F927F928F929F92AF92BF92D6
:10026000CF92DF92EF92FF920F931F93CF93DF9382
:10027000EC013B01EE24E394F12C6E0187E1C80E02
:10028000D11C8D818111A3C00E94DE060BA11CA18F
:100290002DA13EA1AB01BC01401B510B620B730BA6
:1002A00089A19AA1092E000CAA0BBB0B481759076C
:1002B0006A077B0708F41BC10E94DE066BA37CA3C0
:1002C0008DA39EA38C8181113FC010E08F891817E8
:1002D00048F4FE01E10FF11D698187810E94AE079C
:1002E0001F5FF4CF888DFE01E80FF11D6B818785BC
:1002F0000E94AE07888D8F5F883010F4888F01C010
:10030000188E188DFE01E10FF11D6A8187850E940C
:10031000AE07F70102C0EE0FFF1F1A95E2F78F013B
:10032000B12C8F89B81608F0DDC0FE01EB0DF11D70
:10033000818D90E080239123892B21F06881878132
:100340000E94AE07B394EDCF8E01015F1F4F6B810A
:10035000F80181918F010E94AE07C016D106B9F74E
:10036000888DFE01E80FF11D698187810E94AE072B
:10037000888D8F5F888F9F89891708F0188E888DE8
:100380004E01880E911C6881F40187810E94AE079E
:100390005E0100E010E0F9E18F0E911CF401808114
:1003A00090E0002E02C0959587950A94E2F780FFB1
:1003B00005C06A81F50187850E94AE070F5F1F4F58
:1003C000FFEFAF1ABF0A0830110541F78BC08C81CF
:1003D000882311F0512C73C05E018FE0A80EB11C70
:1003E00000E010E025016A81F50180810E94AE07DE
:1003F0004701002E02C0880C991C0A94E2F7312CA8
:100400008F89381678F4FE01E30DF11D818D90E09F
:1004100088219921892B21F0688187810E94AE076C
:100420003394EECF89A19AA10E940307912C8F8962
:10043000981648F4FE01E90DF11D698187810E943B
:10044000AE079394F4CFFFEFAF1ABF0A6B81F201AE
:1004500080810E94AE070F5F1F4F0830110511F613
:1004600041C0F101808190E0002E02C095958795F2
:100470000A94E2F780FF05C06A81F40187850E9433
:10048000AE070F5F1F4FFFEF8F1A9F0A083011054D
:1004900041F789A19AA10E9403078E01015F1F4FB6
:1004A0006B81F80181918F010E94AE07C016D106C1
:1004B000B9F76981F50187810E94AE0753948F894E
:1004C000581680F45E01A50CB11C6881F501878186
:1004D0000E94AE074E0100E010E01501F9E12F0E79
:1004E000311CBFCFC3010E940D018111CACEDF9123
:1004F000CF911F910F91FF90EF90DF90CF90BF9021
:10050000AF909F908F907F906F905F904F903F90B3
:100510002F900895AF92BF92CF92DF92EF92FF9209
:100520000F931F93CF93DF93EC016536710514F0A1
:1005300064E670E077FF02C060E070E0072E000C18
:10054000880B990B1F921F9227E02F9320ED2F937A
:10055000A12CB12C6501A39414E6E12EF12C00E04E
:1005600010E020E030E0A9010E94DD077AA369A332
:100570000F900F900F900F90DF91CF911F910F91DF
:10058000FF90EF90DF90CF90BF90AF9008952F92A3
:100590003F924F925F926F927F928F929F92AF9213
:1005A000BF92CF92DF92EF92FF920F931F93CF9360
:1005B000DF93EC014A015B01222E002329F022E3A4
:1005C000C22E21E0D22E04C092E5C92E91E0D92E90
:1005D0008F89F60194E0899FE00DF11D112480813F
:1005E0009181A281B38188169906AA06BB0694F46C
:1005F0003497408151816281738181E090E0A0E075
:10060000B0E0841B950BA60BB70B88169906AA06BB
:10061000BB0664F480E095E22F89821708F05BC086
:10062000F701E80FF11D90838F5FF6CFB7FE0EC084
:1006300085E2F7018083B094A09490948094811C0B
:10064000911CA11CB11C3324339401C0312CEF89BF
:100650003E1630F5F0E0032D10E03197E01BF10B72
:10066000EE0FFF1FEE0FFF1FEC0DFD1D40805180B0
:1006700062807380C501B401A30192010E942E081B
:10068000F701E00FF11F2083A22FB0E0A301920138
:100690000E944D08861A970AA80AB90A3394D7CF40
:1006A0008E81811118C020E0312C34E2E22FF0E07D
:1006B0008F8990E0019782199309E817F9075CF494
:1006C000EE0DFF1D8081811102C0308302C08A308F
:1006D00010F02F5FEBCFDF91CF911F910F91FF9023
:1006E000EF90DF90CF90BF90AF909F908F907F90D2
:1006F0006F905F904F903F902F900895CF93DF932E
:10070000FC015789252F30E021503109241B310984
:10071000EB0180E090E0851768F4A991B0E0A45F58
:10072000BE4F4C912817390709F44068418F019654
:100730003196F1CFDF91CF9108958F929F92AF9232
:10074000BF92CF92DF92EF92FF920F931F93CF93BE
:10075000DF93CDB7DEB76C01122F8DB69EB6FC01CC
:1007600087892DB73EB7281B31090FB6F8943EBFD5
:100770000FBE2DBF8DB79EB701965C017C01212F66
:10078000C6010E94C702412FB501C6010E947E0327
:100790000FB6F8949EBE0FBE8DBEDF91CF911F9114
:1007A0000F91FF90EF90DF90CF90BF90AF909F9010
:1007B0008F900895AF92BF92CF92DF92EF92FF9207
:1007C0000F931F93CF93DF93EC01EC82CD82AE8227
:1007D000493010F44F8B02C088E08F8B613051F0AC
:1007E00030F0623049F0633061F4188209C0188239
:1007F00081E004C0688304C081E088838A8301C0EB
:100800001A82988181E0982799839A8189278B831E
:10081000F8018E01015F1F4F6E0187E1C80ED11CE8
:10082000D80181918D93AC15BD05D9F79F89422FD1
:10083000DE011796F9018E2F841B891710F0F12C19
:1008400003C081918D93F7CF8F89F81678F45E01FC
:10085000AF0CB11C61E0F50187810E9472076981CC
:10086000F50187810E94AE07F394EECF580161E055
:10087000F80181918F010E9472076B81F5018081DF
:100880000E94AE070C151D0589F700E020E040E04E
:1008900050E0BA01CE010E949D03DF91CF911F91DC
:1008A0000F91FF90EF90DF90CF90BF90AF900895A1
:1008B000CF92DF92EF92FF920F931F93CF93DF932C
:1008C000EC016A017B01122F822F293008F088E0A9
:1008D00090E0880F991F880F991FFC01002319F0E1
:1008E000EE5CFE4F02C0EE5AFE4F60817181828144
:1008F00093810E945605A70196010E94E7056B01AE
:100900007C0120E030E0A9010E94E20587FF05C0DC
:1009100020E030E040E05FEB04C020E030E040E069
:100920005FE3C701B6010E94B2040E941E05AB013D
:10093000BC01212FCE010E949D03DF91CF911F9119
:100940000F91FF90EF90DF90CF9008950E94D20614
:100950007093A8016093A7017093A6016093A5010D
:1009600008955058BB27AA270E94C9040C94A805D3
:100970000E949A0538F00E94A10520F039F49F3FAB
:1009800019F426F40C9497050EF4E095E7FB0C940B
:100990009105E92F0E94B90558F3BA17620773074A
:1009A0008407950720F079F4A6F50C94DB050EF486
:1009B000E0950B2EBA2FA02D0B01B90190010C016F
:1009C000CA01A0011124FF27591B99F0593F50F487
:1009D000503E68F11A16F040A22F232F342F4427DF
:1009E000585FF3CF469537952795A795F0405395D7
:1009F000C9F77EF41F16BA0B620B730B840BBAF0A7
:100A00009150A1F0FF0FBB1F661F771F881FC2F711
:100A10000EC0BA0F621F731F841F48F48795779525
:100A20006795B795F7959E3F08F0B0CF9395880FDF
:100A300008F09927EE0F9795879508950E94250550
:100A40006894B1110C94DC0508950E94C10588F0EA
:100A50009F5798F0B92F9927B751B0F0E1F0660F82
:100A6000771F881F991F1AF0BA95C9F714C0B130C3
:100A700091F00E94DB05B1E008950C94DB05672F2F
:100A8000782F8827B85F39F0B93FCCF386957795F2
:100A90006795B395D9F73EF49095809570956195DB
:100AA0007F4F8F4F9F4F0895E89409C097FB3EF406
:100AB00090958095709561957F4F8F4F9F4F9923AB
:100AC000A9F0F92F96E9BB279395F6958795779529
:100AD0006795B795F111F8CFFAF4BB0F11F460FFE9
:100AE0001BC06F5F7F4F8F4F9F4F16C0882311F041
:100AF00096E911C0772321F09EE8872F762F05C055
:100B0000662371F096E8862F70E060E02AF09A95EF
:100B1000660F771F881FDAF7880F9695879597F9E4
:100B2000089597F99F6780E870E060E008959FEF6F
:100B300080EC089500240A94161617061806090674
:100B4000089500240A941216130614060506089543
:100B5000092E0394000C11F4882352F0BB0F40F4CB
:100B6000BF2B11F460FF04C06F5F7F4F8F4F9F4F0B
:100B7000089557FD9058440F551F59F05F3F71F08D
:100B80004795880F97FB991F61F09F3F79F08795F4
:100B90000895121613061406551FF2CF4695F1DF7D
:100BA00008C0161617061806991FF1CF869571050D
:100BB000610508940895E894BB2766277727CB0141
:100BC00097F908950E94540608F48FEF08950E9443
:100BD000FA050C94A8050E949A0538F00E94A10518
:100BE00020F0952311F00C9491050C949705112495
:100BF0000C94DC050E94B90570F3959FC1F3950F25
:100C000050E0551F629FF001729FBB27F00DB11D90
:100C1000639FAA27F00DB11DAA1F649F6627B00D20
:100C2000A11D661F829F2227B00DA11D621F739F09
:100C3000B00DA11D621F839FA00D611D221F749F17
:100C40003327A00D611D231F849F600D211D822F5E
:100C5000762F6A2F11249F5750409AF0F1F0882385
:100C60004AF0EE0FFF1FBB1F661F771F881F9150B2
:100C70005040A9F79E3F510580F00C9491050C94CB
:100C8000DC055F3FE4F3983ED4F38695779567954E
:100C9000B795F795E7959F5FC1F7FE2B880F911DDC
:100CA0009695879597F90895990F0008550FAA0B07
:100CB000E0E8FEEF16161706E807F907C0F012166F
:100CC0001306E407F50798F0621B730B840B950B72
:100CD00039F40A2661F0232B242B252B21F40895C7
:100CE0000A2609F4A140A6958FEF811D811D089564
:100CF00008950E940E070E9478060E948800C0E0B6
:100D0000D0E00E94CF002097E1F30E940000F9CFCD
:100D10001F920F920FB60F9211242F933F938F9330
:100D20009F93AF93BF938091AA019091AB01A09143
:100D3000AC01B091AD013091A90123E0230F2D3713
:100D400020F40196A11DB11D05C026E8230F0296CF
:100D5000A11DB11D2093A9018093AA019093AB011D
:100D6000A093AC01B093AD018091AE019091AF0121
:100D7000A091B001B091B1010196A11DB11D809368
:100D8000AE019093AF01A093B001B093B101BF91B8
:100D9000AF919F918F913F912F910F900FBE0F9028
:100DA0001F9018952FB7F8946091AA017091AB012C
:100DB0008091AC019091AD012FBF08953FB7F89499
:100DC0008091AE019091AF01A091B001B091B101BD
:100DD00026B5A89B05C02F3F19F00196A11DB11D96
:100DE0003FBFBA2FA92F982F8827820F911DA11DD1
:100DF000B11DBC01CD0142E0660F771F881F991F0E
:100E00004A95D1F708958230910538F0880F991FDF
:100E1000880F991F05970197F1F70895789484B585
:100E2000826084BD84B5816084BD85B5826085BDE6
:100E300085B5816085BDEEE6F0E0808181608083CC
:100E4000E1E8F0E0108280818260808380818160AF
:100E50008083E0E8F0E0808181608083E1EBF0E076
:100E6000808184608083E0EBF0E08081816080831A
:100E7000EAE7F0E080818460808380818260808303
:100E80008081816080838081806880831092C1002E
:100E90000895833081F028F4813099F08230A1F0F8
:100EA00008958730A9F08830B9F08430D1F480916A
:100EB00080008F7D03C0809180008F7780938000B9
:100EC000089584B58F7702C084B58F7D84BD089561
:100ED0008091B0008F7703C08091B0008F7D8093A8
:100EE000B0000895CF93DF9390E0FC01E458FF4FEA
:100EF0002491FC01E057FF4F8491882361F190E039
:100F0000880F991FFC01E255FF4FC591D491FC0158
:100F1000EC55FF4FA591B491611109C09FB7F894AA
:100F20008881209582238883EC912E230BC0623028
:100F300061F49FB7F8948881322F3095832388839A
:100F4000EC912E2B2C939FBF06C08FB7F894E881AD
:100F50002E2B28838FBFDF91CF9108951F93CF93BE
:100F6000DF93282F30E0F901E859FF4F8491F90110
:100F7000E458FF4FD491F901E057FF4FC491CC23BF
:100F8000C1F0162F81110E944907EC2FF0E0EE0FFF
:100F9000FF1FEC55FF4FA591B4919FB7F894111125
:100FA00004C08C91D095D82302C0EC91DE2BDC9349
:100FB0009FBFDF91CF911F9108954F925F926F92E3
:100FC0007F92AF92BF92CF92DF92EF92FF920F93F8
:100FD0001F93CF93DF93CDB7DEB729013A019B0171
:100FE000AC01241935094609570989899A89AB89C1
:100FF000BC89BC01CD016A197B098C099D090E943D
:101000001E08A801970124193509460957090E94AD
:101010002E08CA01B9016A0D7B1D8C1D9D1DDF9133
:10102000CF911F910F91FF90EF90DF90CF90BF90E5
:10103000AF907F906F905F904F900895DB018F93FA
:101040009F930E944D08BF91AF91A29F800D911D6B
:10105000A39F900DB29F900D11240895052E97FB2C
:101060001EF400940E94450857FD07D00E945808BE
:1010700007FC03D04EF40C944508509540953095EC
:1010800021953F4F4F4F5F4F0895909580957095F4
:1010900061957F4F8F4F9F4F08950E948008A59FB5
:1010A000900DB49F900DA49F800D911D1124089563
:1010B000A1E21A2EAA1BBB1BFD010DC0AA1FBB1F5C
:1010C000EE1FFF1FA217B307E407F50720F0A21BCE
:1010D000B30BE40BF50B661F771F881F991F1A943B
:1010E00069F760957095809590959B01AC01BD0165
:1010F000CF010895EE0FFF1F0590F491E02D0994A4
:10110000A29FB001B39FC001A39F700D811D112448
:10111000911DB29F700D811D1124911D0895F894A9
:02112000FFCFFF
:1011220002030405060708090A0B0C0D3F065B4F74
:10113200666D7D077F6F777C395E79713D76060E2D
:10114200763800543F7367506D783E3E00766E5B92
:10115200004001000000100000000001000000102B
:10116200000000000100000010000000000100006B
:101172000010010000000A00000064000000E80303
:10118200000010270000A086010040420F00809658
:0A119200980000E1F50500CA9A3B41
:00000001FF
