:100000000C9434000C9451000C9451000C94510049
:100010000C9451000C9451000C9451000C9451001C
:100020000C9451000C9480000C9451000C945100DD
:100030000C9451000C9461000C9451000C945100EC
:100040000C9451000C9451000C9451000C945100EC
:100050000C9451000C9451000C9451000C945100DC
:100060000C9451000C94510011241FBECFEFD8E026
:10007000DEBFCDBF11E0A0E0B1E0EAEBF3E002C0EB
:1000800005900D92A030B107D9F728E0A0E0B1E0CB
:1000900001C01D92AF30B207E1F70E945C000C94E2
:1000A000DB010C94000095B184B180628F7784B934
:1000B000892F806A85B908950E94530080E090E0FE
:1000C00008951F920F920FB60F9211248F939F9352
:1000D0008FEF80930A088AE58093080880910B08C7
:1000E00090910C08019690930C0880930B08109245
:1000F00009089F918F910F900FBE0F901F90189538
:100100001F920F920FB60F9211240F931F932F93EC
:100110004F935F938F939F93EF93FF9380910D087D
:10012000EEE0F8E00081803031F0003059F421E059
:1001300026B9808309C00000000000000000000014
:10014000000002C00A95008380910808882321F0EE
:1001500081508093080821C1809109088C3308F0F0
:100160001CC1009146000D5F07700E94B700FF910F
:10017000EF913596E00F09940000000000000000A8
:100180000000000000009EE1899FF0011124E05072
:10019000FF4F44E001910BB9049F0BB8049E0BB8CC
:1001A000049E0BB801910BB9049F0BB8049E0BB8C9
:1001B000049E0BB801910BB9049F0BB8049E0BB8B9
:1001C000049E0BB801910BB9049F0BB8049E0BB8A9
:1001D000049E0BB801910BB9049F0BB8049E0BB899
:1001E000049E0BB801910BB9049F0BB8049E0BB889
:1001F000049E0BB801910BB9049F0BB8049E0BB879
:10020000049E0BB801910BB9049F0BB8049E0BB868
:10021000049E0BB801910BB9049F0BB8049E0BB858
:10022000049E0BB801910BB9049F0BB8049E0BB848
:10023000049E0BB801910BB9049F0BB8049E0BB838
:10024000049E0BB801910BB9049F0BB8049E0BB828
:10025000049E0BB801910BB9049F0BB8049E0BB818
:10026000049E0BB801910BB9049F0BB8049E0BB808
:10027000049E0BB801910BB9049F0BB8049E0BB8F8
:10028000049E0BB801910BB9049F0BB8049E0BB8E8
:10029000049E0BB801910BB9049F0BB8049E0BB8D8
:1002A000049E0BB801910BB9049F0BB8049E0BB8C8
:1002B000049E0BB801910BB9049F0BB8049E0BB8B8
:1002C000049E0BB801910BB9049F0BB8049E0BB8A8
:1002D000049E0BB801910BB9049F0BB8049E0BB898
:1002E000049E0BB801910BB9049F0BB8049E0BB888
:1002F000049E0BB801910BB9049F0BB8049E0BB878
:10030000049E0BB801910BB9049F0BB8049E0BB867
:10031000049E0BB801910BB9049F0BB8049E0BB857
:10032000049E0BB801910BB9049F0BB8049E0BB847
:10033000049E0BB801910BB9049F0BB8049E0BB837
:10034000049E0BB801910BB9049F0BB8049E0BB827
:10035000049E0BB801910BB9049F0BB8049E0BB817
:10036000049E0BB801910BB9049F0BB8049E0BB807
:10037000049E0BB8000000E00BB980910A088F5F63
:10038000853019F080930A0808C08FEF80930A081F
:10039000809109088F5F80930908FF91EF919F91E9
:1003A0008F915F914F912F911F910F910F900FBEE1
:0A03B0000F901F901895F894FFCFEE
:00000001FF
