:100000000C9445010C946D010C946D010C94240C1E
:100010000C94000C0C94D60B0C946D010C946D0197
:100020000C946D010C946D010C946D010C946D0198
:100030000C946D010C946D010C946D010C946D0188
:100040000C9448190C946D010C94DF150C94111646
:100050000C946D010C946D010C946D010C946D0168
:100060000C94221C0C946D013F063F064406440686
:100070004906490649064E06720674067606780653
:100080007A067C067E067E063C0744074C0754072A
:100090005B0762076907084AD73B3BCE016E84BC09
:1000A000BFFDC12F3D6C74319ABD56833DDA3D00D2
:1000B000C77F11BED9E4BB4C3E916BAAAABE00001B
:1000C00000803F0000407A10F35A00A0724E1809D9
:1000D0000010A5D4E80000E87648170000E40B54AF
:1000E000020000CA9A3B000000E1F505000080967E
:1000F0009800000040420F000000A08601000000B0
:10010000102700000000E803000000006400000069
:1001100000000A00000000000100000000002C7632
:10012000D888DC674F0823DFC1DFAE59E1B1B7964D
:10013000E5E3E453C63AE651997696E8E6C28426AA
:10014000EB898C9B62ED407C6FFCEFBC9C9F40F286
:10015000BAA56FA5F490055A2AF75C936B6CF96702
:100160006DC11BFCE0E40D47FEF520E6B500D0EDC7
:10017000902E0300943577050080841E080000202F
:100180004E0A000000C80C333333330F986E1283CD
:100190001141EF8D2114893BE65516CFFEE6DB18A1
:1001A000D1844B381BF77C1D901DA4BBE424203266
:1001B00084725E228100C9F124ECA1E53D2725630C
:1001C0007B2273656E736F724E616D65223A2225D4
:1001D00073222C22756E6974223A222573222C22F6
:1001E00076616C7565223A25732C226373223A2559
:1001F000647D25630A004D61676E65746963006202
:100200006567696E202573206661696C65642E20C0
:10021000436865636B20776972696E672100257397
:10022000257300000000080002010000030407001D
:1002300000000000000000010204081020408001BE
:10024000020408102001020408102004040404041D
:100250000404040202020202020303030303030074
:1002600000000023002600290000000000250028CF
:10027000002B0000000000240027002A0000BD071A
:100280009E1141164419D507DD1111241FBECFEF71
:10029000D8E0DEBFCDBF12E0A0E0B1E0E8EFF8E4C7
:1002A00002C005900D92A033B107D9F724E0A0E376
:1002B000B2E001C01D92A137B207E1F711E0C3E43B
:1002C000D1E004C02197FE010E948A1DCF33D107DF
:1002D000C9F70E946F160C946F240C940000FC0167
:1002E00083850C949306AC014C5E5F4FBC01605F4C
:1002F0007F4F0C960E94A50681E0089580913202FE
:1003000090913302892B51F480910601909107015D
:100310000E948016909333028093320280913202C1
:10032000909133020895CF93DF93C0910601D0914D
:1003300007010E947E01AE0160E070E00E94F51EA0
:100340001092310210923002DF91CF9108958150C6
:100350008B3048F4E82FF0E0EE0FFF1FE35AFE4F1A
:1003600080819181089582E192E00895EF92FF9259
:100370000F931F93CF93DF93CDB7DEB7C055D1094D
:100380000FB6F894DEBF0FBECDBF7B018E010D5CB2
:100390001F4FBC01C8010E94E51EB701CE010196A6
:1003A0007C010E94E51E0E9493010E947E01FF9243
:1003B000EF921F930F939F938F930E94431F0E946E
:1003C0007E01BC0187E093E00E94D0160F900F9051
:1003D0000F900F900F900F90C05BDF4F0FB6F89407
:1003E000DEBF0FBECDBFDF91CF911F910F91FF9068
:1003F000EF900895AF92BF92CF92DF92EF92FF926B
:100400000F931F93CF93DF936C015B017A0100E0A0
:1004100010E0C0E0D0E00A151B056CF4F701619113
:100420007191819191917F010E941014C60FD71F85
:100430000F5F1F4FF0CFF6018191882319F0C80F8D
:10044000D11DFACFCE01DF91CF911F910F91FF9077
:10045000EF90DF90CF90BF90AF900895CF93DF9350
:10046000CDB7DEB7AE01475F5F4F6F8178858D8175
:100470009E810E94FA01DF91CF9108954F925F9281
:100480007F928F929F92AF92BF92CF92DF92EF9224
:10049000FF920F931F93CF93DF93CDB7DEB7EA8818
:1004A000FB888C889D88AE88BF88C88CD98C8114C5
:1004B0009104A104B10421F40E9492194B015C0142
:1004C0000E9493010E947E012AE0AC01C501B401A3
:1004D0000E94071F0E947E01FC0101900020E9F7A5
:1004E0003197E81BF90BF0933102E0933002E114ED
:1004F000F10489F1F70101900020E9F731978F01AC
:100500000E191F090333110514F002E310E00E94D5
:100510007E012091300230913102A9014F5F5F4F7F
:100520005093310240933002820F931F2CE2FC0162
:1005300020830E947E01A0903002B0903102A80179
:10054000B7018A0D9B1D0E94EC1E0A0D1B1D109306
:10055000310200933002CE014A962C01A12CB12C1D
:100560008CE2782E20913002309131028091060188
:1005700090910701AC14BD04F4F5AC014950510948
:1005800024173507C4F50E947E0120913002309176
:100590003102A9014F5F5F4F509331024093300207
:1005A000820F931FFC0170820E947E014201F4E0E1
:1005B0008F0E911C0091300210913102080F191F0B
:1005C000F201608171818281938123E042E00E9487
:1005D000A41D0E947E01FC0101900020E9F73197E3
:1005E000E81BF90BF0933102E0933002FFEFAF1AF2
:1005F000BF0A2401B7CF0A97281739079CF5AE0127
:10060000465E5F4FB601C7010E94FA018C010E944D
:100610007E012091300230913102A9014F5F5F4F7E
:100620005093310240933002820F931F2CE2FC0161
:1006300020830E947E016091300270913102680F28
:10064000791F4AE0C8010E94FC1E0E947E01FC0145
:1006500001900020E9F73197E81BF90BF093310284
:10066000E09330020E947E012091300230913102ED
:10067000A9014F5F5F4F5093310240933002820FC8
:10068000931F2AE0FC0120830E947E01DF91CF911D
:100690001F910F91FF90EF90DF90CF90BF90AF90A0
:1006A0009F908F907F905F904F900895FC01962FC0
:1006B000272F468157816085718541155105610558
:1006C000710569F187898F9386898F9385898F93C7
:1006D00084898F9383898F9382898F9381898F9364
:1006E00080898F9387858F9386858F9385858F9358
:1006F00084858F931F9283E08F937F936F935F9393
:100700004F932F939F930E943E022DB73EB72C5ECE
:100710003F4F0FB6F8943EBF0FBE2DBF089582E144
:1007200092E008954F925F926F927F928F929F9284
:10073000AF92BF92CF92DF92EF92FF920F931F93EF
:10074000CF93DF93CDB7DEB7C057D1090FB6F8947A
:10075000DEBF0FBECDBFDB010D900020E9F7119782
:100760007D01E61AF70ADA010D900020E9F71197EA
:10077000A41BB50BE0913002F09131023A96EE0DD8
:10078000FF1DEA0FFB1FA0910601B0910701AE17F4
:10079000BF0708F450C0E22FF12FA02FC52ED42E92
:1007A000E72EF62EA92EB82E4E0121E5820E911CC1
:1007B000840122E044E07A2E6F2E5E2E432E6A2FB3
:1007C0007F2F8E2F932F0E94A41D6EEB71E000559A
:1007D0001109C8010E94E51E4F925F926F927F92AD
:1007E0001F9281E08F93EF92FF920E942E021F9240
:1007F0002CE72F939F938F939F928F92CF92DF92AC
:10080000EF92FF921F928EE78F931F930F93AF92F9
:10081000BF920E94431F2091300230913102820F1B
:10082000931F90933102809330020FB6F894DEBF8D
:100830000FBECDBF02C08FEF9FEFC059DF4F0FB685
:10084000F894DEBF0FBECDBFDF91CF911F910F9106
:10085000FF90EF90DF90CF90BF90AF909F908F90E0
:100860007F906F905F904F9008952F923F924F929C
:100870005F926F927F928F929F92AF92BF92CF9230
:10088000DF92EF92FF920F931F93CF93DF93CDB739
:10089000DEB72D970FB6F894DEBF0FBECDBF2AA1ED
:1008A0002E833BA13F838DB79EB79D878C87F9012F
:1008B000DF010D900020E9F711971D012E1A3F0A64
:1008C0006EE172E09E012F5F3F4F5901C9010E9406
:1008D000E51E0E949301FE01B796C12CD12C32E097
:1008E000230E311C8DA19EA1C816D9060CF050C054
:1008F0002DB73EB73B872A87808191819F012A5F70
:100900003F4F398728874280538064807580DC019F
:10091000FD0101900020E9F73197EA1BFB0BE20D86
:10092000F31D2DB73EB72E1B3F0B0FB6F8943EBFFD
:100930000FBE2DBF2F5F3F4F79019F938F933F8154
:100940003F938E818F93BF92AF92FF92EF920E945E
:10095000431F8CA10E94A7014C010E947E01E091DF
:100960003002F091310293018201A401B7018E0F90
:100970009F1F0E9492032A853B850FB6F8943EBFC5
:100980000FBE2DBF3FEFC31AD30AE885F985AACF62
:100990000E947E012C853D850FB6F8943EBF0FBEA8
:1009A0002DBF2D960FB6F894DEBF0FBECDBFDF91E1
:1009B000CF911F910F91FF90EF90DF90CF90BF905C
:1009C000AF909F908F907F906F905F904F903F90EF
:1009D0002F9008950F931F93FC01068117812085A6
:1009E0003185012B022B032BB9F187898F938689DF
:1009F0008F9385898F9384898F938CE091E09F9367
:100A00008F9383898F9382898F9381898F93808934
:100A10008F938EE091E09F938F9387858F93868548
:100A20008F9385858F9384858F9380E191E09F9349
:100A30008F931F9283E08F9384818F937F936F9323
:100A40000E9435042DB73EB7295E3F4F0FB6F8948C
:100A50003EBF0FBE2DBF02C082E192E01F910F91F9
:100A60000895CF93DF93EC010E94EC05E881F981B2
:100A70000190F081E02DCE0109958A87811106C091
:100A80006A817B818FEF91E00E94B6018A85DF91B8
:100A9000CF910895CF93DF93FC012285222381F02B
:100AA000EC010E9492196E837F8388879987E88181
:100AB000F9810280F381E02DCE01DF91CF9109947D
:100AC00080E0DF91CF910895FC0187E791E0918369
:100AD000808383E0838726EF31E03383228394E0B1
:100AE0009583848316821782108611861286089554
:100AF00020E6FC0120830895FC011082628341837B
:100B00000895AF92BF92CF92DF92EF92FF920F9330
:100B1000CF93DF93D82EC62E7A01E901682F84EA9D
:100B200093E00E94BD186C2D84EA93E00E94741833
:100B3000892B41F160E084EA93E00E94C71890E0BD
:100B4000009709F03FC0E114F104F9F02097E9F0B3
:100B50006D2D84EA93E00E94BD184C2F6D2D84EA20
:100B600093E00E943E192197A12CB12C84EA93E0D6
:100B70000E941B18181619065CF4CF3F8FEFD80798
:100B800071F406C08FEF9FEF1DC080E090E01AC0A7
:100B900061E084EA93E00E94C71890E013C000234C
:100BA00079F0CE016701C80ED91E84EA93E00E9455
:100BB0002318F6018083FFEFAF1ABF0A2197D6CF23
:100BC000C501F0CFDF91CF910F91FF90EF90DF90B3
:100BD000CF90BF90AF9008950F93CF93DF9300D045
:100BE000CDB7DEB780913402811126C080913502E5
:100BF000811122C084EA93E00E94B31800E021E052
:100C000030E0AE014E5F5F4F60E084E40E948105FA
:100C100021E030E0AE014F5F5F4F62E989E20E9460
:100C200081058A818D3741F48981843411F08031C6
:100C300019F481E0809334020F900F90DF91CF91EF
:100C40000F910895CF92DF92EF92FF92CF93E82F0A
:100C50008093560280914902CE2ED12C833099F593
:100C600044E664E28CE392E00E94230888E0C81620
:100C7000D104C0F4F601EC5CFF4F0C948A1D81E0B6
:100C800080935602C0E00EC083E080935602C0E21B
:100C900009C086E080935602C0E404C087E08093D8
:100CA0005602C0E64C2F65E28CE392E00E942308D6
:100CB00040E066E28CE392E0CF91FF90EF90DF900E
:100CC000CF900C9423084CE060E08CE392E00E940B
:100CD000030888E0C816D104A8F4F601E45CFF4FCD
:100CE0000C948A1DC0E20EC0C0E40CC0C0E60AC06D
:100CF000C0E808C0C0EA06C0C0EC04C086E080932B
:100D00005602C0EE4C2F61E08CE392E00E94030893
:100D100040E062E08CE392E0CF91FF90EF90DF90B3
:100D2000CF900C940308CF93C82F84EA93E00E94DD
:100D3000B31842E064E08CE392E00E9404098C2F37
:100D40000E94220681E0CF9108954F925F926F92A8
:100D50007F92AF92BF92CF92DF92EF92FF920F936A
:100D60001F93CF93DF935C016B017A018CE392E0D8
:100D70000E942D0880914902E09156026091420242
:100D8000709143020091440210914502C0914602C5
:100D9000D0914702833009F065C0E330C9F058F4C0
:100DA000E13039F58AE0482E87ED582E83EA682E27
:100DB0008DE3782E1EC0E630A1F0E730D1F4FDE7D8
:100DC0004F2EFFE35F2EF5EF6F2EFEE37F2E11C057
:100DD000BAE04B2EB7ED5B2EB3E26B2EBEE37B2E5B
:100DE00008C0AAE04A2EA7ED5A2EA3EA6A2EAEE367
:100DF0007A2E072E000C880B990B0E942C13A3014E
:100E000092010E9443142DEC3CEC4CEC5DE30E94FB
:100E10004314F5016083718382839383B801110FBA
:100E2000880B990B0E942C13A30192010E9443147A
:100E30002DEC3CEC4CEC5DE30E944314F601608326
:100E4000718382839383BE01DD0F880B990B0E940F
:100E50002C13A30192010E9443142DEC3CEC4CECAA
:100E60005DE375C08E2F90E087309105C0F5FC01E1
:100E7000EC5BFF4F0C948A1D412CE0E85E2EE9E804
:100E80006E2EE4E47E2E2BC0412C50EC552E55E501
:100E9000652E54E4752E23C0412C40E8542E47E2C1
:100EA000642E44E4742E1BC0412C512C31EE632E71
:100EB00033E4732E14C0412C512C28EC622E23E411
:100EC000722E0DC0412C512C95EA692E93E4792E97
:100ED00006C0412C512C86E6682E83E4782E072E1E
:100EE000000C880B990B0E942C13A30192010E9405
:100EF000821220E030E048EC52E40E944314F501F5
:100F00006083718382839383B801110F880B990BDF
:100F10000E942C13A30192010E94821220E030E073
:100F200048EC52E40E944314F6016083718382838B
:100F30009383BE01DD0F880B990B0E942C13A30134
:100F400092010E94821220E030E048EC52E40E94BC
:100F50004314F7016083718382839383DF91CF9180
:100F60001F910F91FF90EF90DF90CF90BF90AF90C7
:100F70007F906F905F904F9008958CE392E00E9475
:100F8000DC0761E58BE392E00E94D90764E48AE321
:100F900092E00E94F50C40E06FEF87E392E00E9440
:100FA0007C0586E392E00C9478058AE392E00C9449
:100FB000F80CFC0160830895FC0184E08587108EA5
:100FC000178A118E08950F931F93CF93DF93EC012F
:100FD000062F142F6E8584EA93E00E94BD18602FBF
:100FE00084EA93E00E947418612F84EA93E00E94DF
:100FF000741884EA93E00E9441198C87DF91CF91A5
:101000001F910F9108950F931F93CF93DF93EC01DE
:10101000062F142F6F8584EA93E00E94BD18602F7D
:1010200084EA93E00E947418612F84EA93E00E949E
:10103000741884EA93E00E9441198C87DF91CF9164
:101040001F910F910895FC012585233011F0603226
:1010500010F40C9403080C94E307CF92DF92EF9204
:10106000FF920F931F93CF93DF93EC016F8584EA78
:1010700093E00E94BD188D85833019F46A896068F9
:1010800001C0698984EA93E00E94741884EA93E0BD
:101090000E9441198C8746E06F8584EA93E00E94A4
:1010A0003E190E9492198B0184EA93E00E941B185A
:1010B000069784F48F89988D892BB1F30E94921939
:1010C000601B710B8F89988D8617970768F781E0F1
:1010D000898F67C08D858330F9F484EA93E00E949C
:1010E0002318F82E84EA93E00E942318C82E84EA7D
:1010F00093E00E942318082F84EA93E00E942318AB
:10110000D82E84EA93E00E942318182F84EA93E0F3
:101110000E942318E82E36C084EA93E00E94231828
:10112000C82E84EA93E00E942318F82E8D85811141
:1011300015C084EA93E00E942318D82E84EA93E035
:101140000E942318082F84EA93E00E942318E82EB7
:1011500084EA93E00E942318182F14C084EA93E0D5
:101160000E942318E82E84EA93E00E942318182F87
:1011700084EA93E00E942318D82E84EA93E00E9428
:101180002318082F8F2D90E09C299F838E83802F1A
:1011900090E09D2999878887812F90E09E299B87E1
:1011A0008A87DF91CF911F910F91FF90EF90DF9091
:1011B000CF900895CF93DF93C62FD42F84EA93E086
:1011C0000E94BD186D2F84EA93E00E94741884EA8F
:1011D00093E00E944119811112C041E06C2F84EA12
:1011E00093E00E943E1984EA93E00E941B18892B29
:1011F00031F084EA93E0DF91CF910C9423188FEFC4
:101200009FEFDF91CF9108950F931F93CF93DF93BB
:10121000EC01162F042F643019F0423009F040C061
:101220008DEF810F8230C8F4002361F04FE06DE153
:10123000CE010E94DA088934910509F48FC001308B
:1012400009F495C04FE06EE1CE010E94DA088934BE
:10125000910509F485C0143031F0123021F01130BD
:1012600011F0111116C0002351F040E269E1CE01E6
:101270000E94DA08019689F4013009F474C040E252
:1012800068E1CE010E94DA08019609F05AC01430D4
:1012900011F0023029F480E06EC01430C1F101E099
:1012A0001D871130D1F078F11230E9F0133009F0D8
:1012B00046C0013011F08EE101C08DE18F878E872D
:1012C00088E08A8B89E0898B8AE08C8B8BE08B8B22
:1012D0008CE08E8B8DE08D8B32C0013021F088E167
:1012E00003C082E08D8789E18E878EE18F8783E05E
:1012F000898B84E08A8B87E08B8B88E08C8B85E000
:101300008D8B86E01BC0013051F088E109C04FE0B1
:101310006EE1CE010E94DA08CC9719F31D8689E1AF
:101320008E878EE18F8783E0898B84E08A8B85E0CE
:101330008B8B86E08C8B87E08D8B88E08E8B81E0B9
:101340001AC0143049F44FE06EE1CE010E94DA0871
:1013500011E0CC9709F010E000E0A2CF01E001C05D
:1013600000E013E09DCF143009F495CF99CF1430ED
:1013700009F47BCF72CFDF91CF911F910F91089528
:10138000CF92DF92EF92FF920F931F93CF93DF9351
:10139000EC01162FD42EC22E1B821A8288EE93E007
:1013A000A0E0B0E08C839D83AE83BF8383E891E0AF
:1013B000998388838FEF860F823060F48CE190E010
:1013C0000E947E167C01202F4C2D6D2D0E94960CC4
:1013D000FD86EC861E87DF91CF911F910F91FF90C4
:1013E000EF90DF90CF900895CF93DF9323E831E023
:1013F000FC0131832083C485D585209741F0CE013F
:101400000E94EE0CCE01DF91CF910C948216DF91F9
:10141000CF910895FC0196859150923048F48485CF
:101420009585DC01ED91FC910084F185E02D099416
:1014300087E093E00C94C014FC01968591509230A3
:1014400048F484859585DC01ED91FC910680F78157
:10145000E02D099487E093E00C94CE14FC0196856E
:101460009150923048F484859585DC01ED91FC9192
:101470000480F581E02D099487E093E00C94B41486
:10148000CF93DF93EC018E858D7F21F487E093E08D
:101490000E9458158C859D85009769F02E852150F6
:1014A000223048F4DC01ED91FC910284F385E02DBB
:1014B000DF91CF910994DF91CF910895FF920F931F
:1014C0001F93CF93DF938C01F62EDC011C968D9138
:1014D0009C911D97009781F01E962C9121502230EF
:1014E00058F4DC01ED91FC910190F081E02D09951B
:1014F000EC01C170DD2702C0C1E0D0E0F8018685B3
:101500008D7F39F46F2D87E093E00E941115C82379
:10151000D923CE01DF91CF911F910F91FF900895B4
:101520002091990230919A0228173907B9F49091C5
:10153000570280915802981789F0E0915702F0E025
:10154000E75AFD4F80812091570230E02F5F3F4FD7
:101550002F7333272093570290E008958FEF9FEF6A
:1015600008952091990230919A022817390771F451
:101570009091570280915802981741F0E0915702DC
:10158000F0E0E75AFD4F808190E008958FEF9FEFE4
:1015900008952091990230919A022817390771F421
:1015A000809158022091570290E0805C9F4F821BEF
:1015B000910960E470E00E94541D089580E090E07D
:1015C00008952091990230919A022817390739F429
:1015D0008FB7F89410925802109257028FBF089557
:1015E000DC015196ED91FC915297908150968C912F
:1015F000809589238083089520E001972FEF8F3F06
:101600009207D9F70895EF92FF920F931F93CF930C
:10161000DF93EC018B8DEE85FF859D8581FF04C0F6
:101620008081982329F446C08081982309F042C024
:101630008B899C890E94FC0A88E0E82EF12C10E03E
:1016400001E08D899E890E94FC0AEE85FF859081CC
:101650008D85892311F0102B03C0802F80951823CE
:10166000000F81E0E81AF10861F78F89988D0E94D8
:10167000FC0A8B8D81FD10958091580220915702B4
:1016800090E001968F73992730E08217930779F0E5
:10169000E0915802F0E0E75AFD4F10838091580224
:1016A00090E001968F7399278093580203C08B8D29
:1016B00081608B8FDF91CF911F910F91FF90EF9001
:1016C0000895611102C00C94F00ADC015196ED916D
:1016D000FC915297208150968C91822B80830895A3
:1016E000DF92EF92FF920F931F93CF93DF93EC0162
:1016F000298D3A8D2115310529F481E090E09B83F5
:101700008A834BC0162FDFB6F8946B8D6695617097
:101710000E94610B898D9A8D05960E94FC0A8B8D23
:1017200098E0E92EF12C01E081FF18C0812F802381
:1017300021F0CE010E94F00A04C061E0CE010E94B7
:10174000610B898D9A8D0E94FC0A000F81E0E81AD6
:10175000F10861F7CE010E94F00A18C0812F8023A2
:1017600029F061E0CE010E94610B03C0CE010E940E
:10177000F00A898D9A8D0E94FC0A000F81E0E81A18
:10178000F10861F761E0CE010E94610BDFBE898D37
:101790009A8D0E94FC0A21E030E0C901DF91CF91CF
:1017A0001F910F91FF90EF90DF9008951F920F927D
:1017B0000FB60F9211242F933F934F935F936F9324
:1017C0007F938F939F93AF93BF93EF93FF938091FA
:1017D000990290919A02009711F00E94030BFF91D9
:1017E000EF91BF91AF919F918F917F916F915F9199
:1017F0004F913F912F910F900FBE0F901F90189512
:101800001F920F920FB60F9211242F933F934F9375
:101810005F936F937F938F939F93AF93BF93EF9358
:10182000FF930E94D60BFF91EF91BF91AF919F91D3
:101830008F917F916F915F914F913F912F910F9079
:101840000FBE0F901F9018951F920F920FB60F9218
:1018500011242F933F934F935F936F937F938F93B5
:101860009F93AF93BF93EF93FF930E94D60BFF918B
:10187000EF91BF91AF919F918F917F916F915F9108
:101880004F913F912F910F900FBE0F901F90189581
:101890001F93CF93DF93EC01162F61E0812F0E94FD
:1018A000C21A61E0812F0E94FE1A812F90E0FC0194
:1018B000E95CFD4FE491E88BFC01E55BFD4FE491B1
:1018C000F0E0EE0FFF1FE759FD4F859194919A8B41
:1018D000898BDF91CF911F9108951F93CF93DF9351
:1018E000EC01162F60E0812F0E94C21A8B8D81FDC2
:1018F00004C061E0812F0E94FE1A1C87812F90E0B6
:10190000FC01E95CFD4FE491ED87FC01E55BFD4FD7
:10191000E491F0E0EE0FFF1FE15AFD4F85919491A5
:101920009F878E87DF91CF911F9108951F93CF934B
:10193000DF93EC01162F1B821A8288EE93E0A0E061
:10194000B0E08C839D83AE83BF8383E991E099836C
:1019500088831C8A1B8A1E8A1D8A188E1F8A1A8EEB
:10196000198E8B8D8E7F20FB81F98B8F642FCE019A
:101970000E94480C612FCE01DF91CF911F910C94F2
:101980006D0CFC012485263140F5283028F02E30DE
:1019900030F4EBE6F0E005C0EDE6F0E002C0ECE686
:1019A000F0E03081283038F481E090E001C0880F09
:1019B0002A95EAF70FC0422F50E02E3018F4485015
:1019C000510902C04E50510981E090E001C0880FDA
:1019D0004A95EAF7809583238083089523E931E0CF
:1019E000FC01318320830C94C10CFC0160830895B9
:1019F00008954F925F926F927F928F929F92AF92D3
:101A0000BF92CF92DF92EF92FF920F931F93CF93EB
:101A1000DF9300D000D000D0CDB7DEB79E838D839A
:101A20002A013B014801590120E030E0A901C3012E
:101A3000B2010E947D1287FD7FC020E030E0A90145
:101A4000C501B4010E947D1287FD76C020E030E020
:101A5000A901C701B6010E947D1287FD6DC0ED810D
:101A6000FE81408251826282738284829582A68244
:101A7000B782C086D186E286F38664A575A586A561
:101A800097A50E942A1320E030E04AE754E40E9420
:101A9000821269837A838B839C83ED81FE814486E5
:101AA0005586668677869B01AC01C501B4010E940C
:101AB00043144B015C01ED81FE81608B718B828B45
:101AC000938B29813A814B815C81C701B6010E94C9
:101AD00082126B017C01ED81FE81648B758B868B9C
:101AE000978B808D918D019739F5A301920160E06C
:101AF00070E0CB010E94E111ED81FE816487758762
:101B000086879787A501940160E070E0CB010E9471
:101B1000E111ED81FE81608B718B828B938BA7012C
:101B2000960160E070E0CB010E94E111ED81FE8141
:101B3000648B758B868B978B26960FB6F894DEBFD9
:101B40000FBECDBFDF91CF911F910F91FF90EF900E
:101B5000DF90CF90BF90AF909F908F907F906F90CD
:101B60005F904F9008958F929F92AF92BF92CF92C5
:101B7000DF92EF92FF92CF93DF93EC01EC8DFD8D1E
:101B8000C080D180E280F380CCA2DDA2EEA2FFA2D1
:101B9000EA8DFB8D80819181A281B38188A799A76D
:101BA000AAA7BBA78CA89DA8AEA8BFA8A501940111
:101BB000C701B6010E940314181664F088A899A8FA
:101BC000AAA8BBA8A5019401C701B6010E947D1275
:101BD00087FF04C08CA29DA2AEA2BFA2DF91CF91CD
:101BE000FF90EF90DF90CF90BF90AF909F908F903D
:101BF00008951F93CF93DF93EC0111E061307105DD
:101C000009F010E06130710531F488AD811103C035
:101C1000CE010E94B30D18AFDF91CF911F910895AF
:101C20000F931F93CF93DF93EC018B0188AD882333
:101C300061F1888D998D8617970739F12C853D853F
:101C40004E855F8560E070E0CB010E94E1116C87FA
:101C50007D878E879F87288939894A895B8960E0DB
:101C600070E0CB010E94E111688B798B8A8B9B8B92
:101C70002C893D894E895F8960E070E0CB010E942C
:101C8000E1116C8B7D8B8E8B9F8B198F088FDF9171
:101C9000CF911F910F9108954F925F926F927F9213
:101CA0008F929F92AF92BF92CF92DF92EF92FF926C
:101CB0000F931F93CF93DF9300D000D0CDB7DEB743
:101CC0004C0127013801A982BA82CB82DC82FC0157
:101CD000558F448F738F628F378F268F10AE10AA67
:101CE00011AA12AA13AA80E090E0AFE7B3E484AB94
:101CF00095ABA6ABB7AB84E690E0A0E0B0E084A7DC
:101D000095A7A6A7B7A76B8D7C8DC4010E94100E66
:101D1000CF88D88CE98CFA8C09811A812B813C817F
:101D2000B301A201C4010E94F90C0E949219F401AE
:101D300004A515A526A537A5DC01CB01801B910BB9
:101D4000A20BB30B80A391A3A2A3B3A30F900F90F8
:101D50000F900F90DF91CF911F910F91FF90EF9017
:101D6000DF90CF90BF90AF909F908F907F906F90BB
:101D70005F904F900895CF92DF92EF92FF92CF93B2
:101D8000DF930E94E1116B017C010E94F412AB0110
:101D900077FF04C044275527461B570B28E631E040
:101DA000CA01B9010E94541DEC01853B910524F044
:101DB000C9018C1B9D0BEC0120E030E0A901C7019B
:101DC000B6010E94031487FD0AC020E030E044E31E
:101DD00053E4C701B6010E947D121816A4F420E056
:101DE00030E044E353ECC701B6010E947D1218169F
:101DF0006CF020E030E044EB53ECC701B6010E94E8
:101E0000031487FD03C081E090E002C08FEF9FEFD5
:101E1000C89FB001C99F700DD89F700D1124072E67
:101E2000000C880B990B0E942C13DF91CF91FF902F
:101E3000EF90DF90CF90089580E090E0A4EBB2E4C3
:101E40008093DC029093DD02A093DE02B093DF0268
:101E500080E090E0A8ECB2E480930801909309013F
:101E6000A0930A01B0930B0161E070E08FE992E06A
:101E70000E94F90D26E040E855E260E070E087E05E
:101E800093E00E947A1580EE92E00E943105811164
:101E900007C06FE971E087E093E00E94D016FFCFA2
:101EA00061E08BE00E94C21A61E08AE00E94C21ADF
:101EB00060E08BE00E94FE1A60E08AE00C94FE1A5B
:101EC0000F931F93CF938B014130510511F401976C
:101ED00004C04F3F2FEF520711F0CAE001C0CBE022
:101EE000BA01680F791F8C2F0E943A1AB801110F9E
:101EF000880B990B0E94C31960E070E08C2F0E9440
:101F00003A1A60E08C2FCF911F910F910C94FE1A1A
:101F10004F925F926F927F928F929F92AF92BF92F9
:101F2000CF92DF92EF92FF920F931F93CF93DF93A5
:101F3000CDB7DEB728970FB6F894DEBF0FBECDBF82
:101F40008C0160ED71E087E093E00E94D016C12C17
:101F5000D12C760126013701A12CB12CA016B10697
:101F60000CF040C080EE92E00E944A052091EC0205
:101F70003091ED024091EE025091EF02C301B201A7
:101F80000E94E2112B013C012091F0023091F102FC
:101F90004091F2025091F302C701B6010E94E21192
:101FA0006B017C0122E030E0B301A20187E093E005
:101FB0000E94191869ED71E087E093E00E94C31652
:101FC00022E030E0B701A60187E093E00E941918F3
:101FD0006BED71E087E093E00E94C3168FEFA81AC3
:101FE000B80ABCCFB801110F880B990B0E942C13B3
:101FF0004B015C019B01AC01C301B2010E94821242
:10200000062F772E582E692EA5019401C701B6011F
:102010000E948212162FD72E7C016DED71E087E0B1
:1020200093E00E94D01622E030E0402F572D652D1E
:10203000762D87E093E00E94191869ED71E087E042
:1020400093E00E94C31622E030E0412F5D2DB701DE
:1020500087E093E00E94191887E093E00E94CC1675
:10206000802F972DA52DB62D89839A83AB83BC83B2
:10207000812F9D2DD7018D839E83AF83B887202F1D
:102080003A814B815C81612F7E818F819885289672
:102090000FB6F894DEBF0FBECDBFDF91CF911F9179
:1020A0000F91FF90EF90DF90CF90BF90AF909F90F7
:1020B0008F907F906F905F904F9008958F929F9236
:1020C000AF92BF92CF92DF92EF92FF92CF93DF93C6
:1020D000CDB7DEB728970FB6F894DEBF0FBECDBFE1
:1020E00084E190E00E94880F29833A834B835C83CC
:1020F0006D837E838F83988789809A80AB80BC8034
:10210000CD80DE80EF80F88420E030E0A901C701B7
:10211000B6010E9403141816DCF4A7019601C5014C
:10212000B4010E9482120E944E1220E030E044E38B
:1021300053E40E9443142BED3FE049E450E40E9435
:1021400082129B01AC0160E070E084EB92E423C05A
:1021500020E030E0A901C701B6010E947D1287FF8F
:102160001DC0A7019601C501B4010E9482120E9400
:102170004E1220E030E044E353E40E9443142BED80
:102180003FE049E450E40E9482129B01AC0160E010
:1021900070E087E893E40E94E1111AC020E030E08B
:1021A000A901C701B6010E947D1281110EC020E075
:1021B00030E0A901C501B4010E947D1287FF05C06E
:1021C00060E070E084E393E403C060E070E0CB0182
:1021D00028960FB6F894DEBF0FBECDBFDF91CF912A
:1021E000FF90EF90DF90CF90BF90AF909F908F9037
:1021F00008954F925F926F927F92AF92BF92CF926B
:10220000DF92EF92FF920F931F93CF93DF93CDB79F
:10221000DEB7C456D1090FB6F894DEBF0FBECDBFEE
:102220000E945E102B013C0120919B0230919C0288
:1022300040919D0250919E020E94BB0E6B017C0159
:10224000CE0101965C01BC0187E093E00E94D016AC
:10225000C701B6010E94F4129B012D593F4F273C44
:10226000310568F48B0177FF04C000271127061B96
:10227000170B023011052CF402E010E002C004E656
:1022800010E01F930F937F936F9360919B02709167
:102290009C0280919D0290919E020E94F4127F9375
:1022A0006F93C301B2010E94F4127F936F9385EE86
:1022B00091E09F938F93BF92AF920E94431F0FB6FE
:1022C000F894DEBF0FBECDBF20E030E040EA50EC16
:1022D000C701B6010E947D1287FF03C041E050E0B4
:1022E0000CC020E030E040EA50E4C701B6010E9493
:1022F000031418163CF44FEF5FEFB8018AEF90E03B
:102300000E94600F60E570E080E090E00E94C319D9
:10231000CC59DF4F0FB6F894DEBF0FBECDBFDF91B3
:10232000CF911F910F91FF90EF90DF90CF90BF90D2
:10233000AF907F906F905F904F900895AF92BF9253
:10234000CF92DF92EF92FF920F931F9300E029E06C
:1023500048E062E088EF92E00E94C00980EE92E0DF
:102360000E9464051F921F928FE38F9380E88F93E2
:102370001F921F92A12CB12C80EAC82E80E4D82E87
:10238000E12CF12C00E010E428E031E048ED52E0CF
:102390006CED72E08FE992E00E944C0E0F900F906E
:1023A0000F900F900F900F901F910F91FF90EF9053
:1023B000DF90CF90BF90AF90089588EF92E00C949B
:1023C000F4095058BB27AA270E94F9110C94C9138D
:1023D0000E94BB1338F00E94C21320F039F49F3FD3
:1023E00019F426F40C9491130EF4E095E7FB0C9489
:1023F0008B13E92F0E94DA1358F3BA176207730799
:102400008407950720F079F4A6F50C94FC130EF4DC
:10241000E0950B2EBA2FA02D0B01B90190010C01F4
:10242000CA01A0011124FF27591B99F0593F50F40C
:10243000503E68F11A16F040A22F232F342F442764
:10244000585FF3CF469537952795A795F04053955C
:10245000C9F77EF41F16BA0B620B730B840BBAF02C
:102460009150A1F0FF0FBB1F661F771F881FC2F797
:102470000EC0BA0F621F731F841F48F487957795AB
:102480006795B795F7959E3F08F0B0CF9395880F65
:1024900008F09927EE0F979587950895DF93DD272C
:1024A000B92FBF7740E85FE31616170648075B07AA
:1024B00018F4D92F0E9408149F938F937F936F93E2
:1024C0000E94B014E6E9F0E00E9494130E94C91340
:1024D0002F913F914F915F910E945614DD2351F04F
:1024E0009058A2EA2AED3FE049EC5FE3D0785D27FF
:1024F0000E94F911DF910C94C9130E94671308F42C
:1025000081E008950E9496120C94C9130E94C21390
:1025100058F00E94BB1340F029F45F3F29F00C945F
:102520008B1351110C94FD130C9491130E94DA1328
:1025300068F39923B1F3552391F3951B550BBB27F2
:10254000AA2762177307840738F09F5F5F4F220F37
:10255000331F441FAA1FA9F335D00E2E3AF0E0E82E
:1025600032D091505040E695001CCAF72BD0FE2F78
:1025700029D0660F771F881FBB1F2617370748070C
:10258000AB07B0E809F0BB0B802DBF01FF279358C4
:102590005F4F3AF09E3F510578F00C948B130C94EA
:1025A000FD135F3FE4F3983ED4F3869577956795E6
:1025B000B795F7959F5FC9F7880F911D96958795F9
:1025C00097F90895E1E0660F771F881FBB1F621718
:1025D00073078407BA0720F0621B730B840BBA0BD6
:1025E000EE1F88F7E09508950E94FB126894B111E0
:1025F0000C94FD1308950E94E21388F09F5798F001
:10260000B92F9927B751B0F0E1F0660F771F881FF7
:10261000991F1AF0BA95C9F714C0B13091F00E9411
:10262000FC13B1E008950C94FC13672F782F8827D2
:10263000B85F39F0B93FCCF3869577956795B39538
:10264000D9F73EF490958095709561957F4F8F4FA7
:102650009F4F0895E89409C097FB3EF490958095AC
:10266000709561957F4F8F4F9F4F9923A9F0F92F58
:1026700096E9BB279395F695879577956795B795D6
:10268000F111F8CFFAF4BB0F11F460FF1BC06F5FBC
:102690007F4F8F4F9F4F16C0882311F096E911C0CE
:1026A000772321F09EE8872F762F05C0662371F0EF
:1026B00096E8862F70E060E02AF09A95660F771F03
:1026C000881FDAF7880F9695879597F90895990FDF
:1026D0000008550FAA0BE0E8FEEF16161706E807EC
:1026E000F907C0F012161306E407F50798F0621B0D
:1026F000730B840B950B39F40A2661F0232B242BE2
:10270000252B21F408950A2609F4A140A6958FEF00
:10271000811D811D089597F99F6780E870E060E052
:1027200008959FEF80EC0895DF93CF931F930F934D
:10273000FF92EF92DF927B018C01689406C0DA2E43
:10274000EF010E945614FE01E894A5912591359160
:1027500045915591A6F3EF010E94F911FE019701F1
:10276000A801DA9469F7DF90EF90FF900F911F9125
:10277000CF91DF91089500240A94161617061806C3
:102780000906089500240A94121613061406050675
:102790000895092E0394000C11F4882352F0BB0F06
:1027A00040F4BF2B11F460FF04C06F5F7F4F8F4F69
:1027B0009F4F089557FD9058440F551F59F05F3FA4
:1027C00071F04795880F97FB991F61F09F3F79F053
:1027D00087950895121613061406551FF2CF4695D5
:1027E000F1DF08C0161617061806991FF1CF869557
:1027F0007105610508940895E894BB27662777273B
:10280000CB0197F908950E94671308F48FEF08959C
:102810009B01AC0160E070E080E89FE30C948212C1
:102820000E94E21358F19E5760F19851A0F0E9F030
:10283000983020F5092E9927660F771F881F991F5A
:102840000A94D1F712C0062E672F782F8827985F39
:1028500011F4000C07C0993FB4F3869577956795FE
:102860009395D9F7611D711D811D3EF4909580955A
:10287000709561957F4F8F4F9F4F089568940C948A
:10288000FD130C94FC130E9456140C94C9130E945F
:10289000BB1338F00E94C21320F0952311F00C9462
:1028A0008B130C94911311240C94FD130E94DA13D2
:1028B00070F3959FC1F3950F50E0551F629FF00193
:1028C000729FBB27F00DB11D639FAA27F00DB11DAC
:1028D000AA1F649F6627B00DA11D661F829F222735
:1028E000B00DA11D621F739FB00DA11D621F839FBC
:1028F000A00D611D221F749F3327A00D611D231F92
:10290000849F600D211D822F762F6A2F11249F57DF
:1029100050409AF0F1F088234AF0EE0FFF1FBB1FE2
:10292000661F771F881F91505040A9F79E3F5105A1
:1029300080F00C948B130C94FD135F3FE4F3983EEE
:10294000D4F3869577956795B795F795E7959F5F4B
:10295000C1F7FE2B880F911D9695879597F90895DD
:102960009B01AC010C944314FC01918D228D892FA5
:1029700090E0805C9F4F821B91098F739927089587
:10298000FC01918D828D981731F0828DE80FF11D39
:10299000858D90E008958FEF9FEF0895FC01918D54
:1029A000828D981761F0828DDF01A80FB11D5D96B1
:1029B0008C91928D9F5F9F73928F90E008958FEF1F
:1029C0009FEF089587E396E1892B49F080E090E03E
:1029D000892B29F00E94371681110C94000008956C
:1029E000FC01848DDF01A80FB11DA35ABF4F2C91AC
:1029F000848D90E001968F739927848FA689B7897B
:102A00002C93A089B1898C9180648C93938D848D53
:102A1000981306C00288F389E02D80818F7D808322
:102A20000895EF92FF920F931F93CF93DF93EC01E2
:102A300081E0888F9B8D8C8D981305C0E889F9897A
:102A4000808185FD24C0F62E0B8D10E00F5F1F4F97
:102A50000F731127E02E8C8DE8120CC00FB607FC07
:102A6000FACFE889F989808185FFF5CFCE010E94F0
:102A7000F014F1CF8B8DFE01E80FF11DE35AFF4FEB
:102A8000F0820B8FEA89FB898081806207C0EE8922
:102A9000FF896083E889F98980818064808381E08F
:102AA00090E0DF91CF911F910F91FF90EF900895EB
:102AB000CF93DF93EC01888D8823C9F0EA89FB89E5
:102AC000808185FD05C0A889B9898C9186FD0FC0DC
:102AD0000FB607FCF5CF808185FFF2CFA889B989B1
:102AE0008C9185FFEDCFCE010E94F014E7CFDF91EE
:102AF000CF910895CF92DF92EF92FF921F93CF93E1
:102B0000DF93EC016A017B01122FE889F98982E0E9
:102B100080834115514E61057105B1F060E079E0A7
:102B20008DE390E0A70196010E94681DDA01C901BA
:102B30000197A109B109B695A795979587959C012D
:102B4000211580E13807A8F0E889F989108260E84A
:102B500074E88EE190E0A70196010E94681DDA01F9
:102B6000C9010197A109B109B695A79597958795D0
:102B70009C01EC85FD853083EE85FF852083188ED2
:102B8000EC89FD891083EA89FB89808180618083DB
:102B9000EA89FB89808188608083EA89FB8980815A
:102BA00080688083EA89FB8980818F7D8083DF91C3
:102BB000CF911F91FF90EF90DF90CF9008951F92DB
:102BC0000F920FB60F9211242F938F939F93EF9331
:102BD000FF93E0911703F09118038081E0911D03AA
:102BE000F0911E0382FD12C09081809120038F5FBF
:102BF0008F7320912103821751F0E0912003F0E0C0
:102C0000E95FFC4F958F8093200301C08081FF9185
:102C1000EF919F918F912F910F900FBE0F901F906A
:102C200018951F920F920FB60F9211242F933F9376
:102C30004F935F936F937F938F939F93AF93BF93C4
:102C4000EF93FF9387E093E00E94F014FF91EF91E0
:102C5000BF91AF919F918F917F916F915F914F91B4
:102C60003F912F910F900FBE0F901F90189587E006
:102C700093E00E94B41421E0892B09F420E0822F14
:102C80000895E7E0F3E01382128288EE93E0A0E07B
:102C9000B0E084839583A683B78384E092E0918338
:102CA000808385EC90E09587848784EC90E097871B
:102CB000868780EC90E0918B808B81EC90E0938B09
:102CC000828B82EC90E0958B848B86EC90E0978BE6
:102CD000868B118E128E138E148E089508950E9485
:102CE000FF190E946E160E941C0FC2EED4E10E94D2
:102CF000F9102097E1F30E94E214F9CF0C94C41D5F
:102D00000C94C41D0C945C1ECF92DF92EF92FF9244
:102D10000F931F93CF93DF936C017A018B01C0E077
:102D2000D0E0CE15DF0581F0D8016D918D01D6017F
:102D3000ED91FC910190F081E02DC6010995892B60
:102D400011F02196EECF7E01C701DF91CF911F9147
:102D50000F91FF90EF90DF90CF900895611571056E
:102D600079F0FB0101900020E9F73197AF01461B94
:102D7000570BDC01ED91FC910280F381E02D099469
:102D800080E090E008950C94AE16DC01ED91FC918A
:102D90000190F081E02D099460E172E00C94AE1690
:102DA0000F931F93CF93DF93EC010E94AE168C011B
:102DB000CE010E94CC16800F911FDF91CF911F9101
:102DC0000F9108958F929F92AF92BF92EF92FF92D0
:102DD0000F931F93CF93DF93CDB7DEB7A1970FB6B5
:102DE000F894DEBF0FBECDBF7C01FA01CB0119A262
:102DF000223008F42AE08E010F5D1F4F822E912CA5
:102E0000A12CB12CBF01A50194010E94681DF901FC
:102E1000CA01015011096A3010F4605D01C0695C9B
:102E2000D8016C93232B242B252B61F7B801C70104
:102E30000E94AE16A1960FB6F894DEBF0FBECDBFAE
:102E4000DF91CF911F910F91FF90EF90BF90AF90C6
:102E50009F908F9008952115310541F4DC01ED918B
:102E6000FC910190F081E02D642F09940C94E216FE
:102E70009A01AB0160E070E00C942B177F928F9267
:102E80009F92AF92BF92CF92DF92EF92FF920F93F9
:102E90001F93CF93DF938C016A017B01722E9A01FD
:102EA000AB01C701B6010E944F1D882319F063E1F1
:102EB00072E027C046015701E894B7F82FEF3FEFC3
:102EC0004FE75FE7C501B4010E944F1D81110DC09E
:102ED0002FEF3FEF4FE75FE7C501B4010E947D127E
:102EE00018161CF467E172E00CC02FEF3FEF4FE7BC
:102EF0005FE4C701B6010E940314181694F46BE155
:102F000072E0C801DF91CF911F910F91FF90EF9078
:102F1000DF90CF90BF90AF909F908F907F900C9458
:102F2000AE162FEF3FEF4FE75FECC701B6010E94EF
:102F30007D1287FDE4CF20E030E0A901C701B60192
:102F40000E947D1287FF0AC06DE2C8010E94C5166B
:102F5000EC01F7FAF094F7F8F09402C0C0E0D0E08A
:102F6000B12C60E070E080E09FE37B1441F020E052
:102F700030E040E251E40E948212B394F6CFA70100
:102F800096010E94E2116B017C010E94FB124B0131
:102F90005C012AE0AB01BC01C8010E94E216C80F27
:102FA000D91F7720B9F1C501B4010E942A139B01F2
:102FB000AC01C701B6010E94E1116B017C016EE218
:102FC000C8010E94C516C80FD91F20E030E040E2BA
:102FD00051E4C701B6010E9443144B015C010E94F9
:102FE000FB126B017C014AE050E0C8010E943817D7
:102FF000C80FD91FB60180E090E00E942A139B0100
:10300000AC01C501B4010E94E1116B017C017A940D
:103010007110DBCFCE01DF91CF911F910F91FF9007
:10302000EF90DF90CF90BF90AF909F908F907F9068
:1030300008950C943E178091D40390E02091D5031D
:10304000821B910908959091D5038091D40398171C
:1030500050F4E92FF0E0EA52FC4F208130E09F5F0E
:103060009093D50302C02FEF3FEFC9010895E0917F
:10307000D5038091D403E81730F4F0E0EA52FC4F16
:10308000808190E008958FEF9FEF08950895CF928B
:10309000DF92EF92FF920F931F93CF93DF937C0108
:1030A000CB018A012091B003222389F0EB016B014F
:1030B000C40ED51ECC15DD0569F06991D701ED91DF
:1030C000FC910190F081E02DC7010995F3CF642FA9
:1030D0000E94EA1BC801DF91CF911F910F91FF90D1
:1030E000EF90DF90CF900895CF93DF931F92CDB7ED
:1030F000DEB769832091B0032223D1F02091B10380
:10310000203240F021E030E0FC013383228380E074
:1031100090E015C08091B203E82FF0E0ED54FC4F31
:10312000998190838F5F8093B2038093B10305C030
:1031300061E0CE0101960E94EA1B81E090E00F90D1
:10314000DF91CF910895FC011382128288EE93E003
:10315000A0E0B0E084839583A683B78383E292E006
:103160009183808308951092D5031092D403109216
:10317000B2031092B1030C942E1B81E08093B00334
:103180006093D3031092B2031092B10308950F938A
:10319000062F21E04091B10363EB73E08091D303EC
:1031A0000E94941B1092B2031092B1031092B003CC
:1031B0000F9108954F925F926F927F92AF92BF925C
:1031C000CF92EF92FF920F931F93CF93DF935C0107
:1031D000F62ED42F28013901EE2021F10E94BD18CE
:1031E000CE2DC43008F0C3E0C150C0F028E0C29F2B
:1031F000C0011124A301920104C05695479537954B
:1032000027958A95D2F7CA01B901D501ED91FC91B4
:103210000190F081E02DC5010995E6CF60E0C50180
:103220000E94C7184D2FD13208F040E22C2D66EDD8
:1032300073E08F2D0E944C1B1092D5038093D40312
:10324000DF91CF911F910F91FF90EF90CF90BF90A2
:10325000AF907F906F905F904F900895CF92EF92D4
:103260000F931F93C22EE12C00E010E098010E9402
:10327000DA181F910F91EF90CF90089521E00C94F0
:103280002E1961E00C94C71884EA93E00C94A318FB
:103290001F920F920FB60F9211242F933F938F938B
:1032A0009F93AF93BF938091F7039091F803A09100
:1032B000F903B091FA033091F60323E0230F2D3781
:1032C00020F40196A11DB11D05C026E8230F02962A
:1032D000A11DB11D2093F6038093F7039093F8038B
:1032E000A093F903B093FA038091FB039091FC0340
:1032F000A091FD03B091FE030196A11DB11D809325
:10330000FB039093FC03A093FD03B093FE03BF91D6
:10331000AF919F918F913F912F910F900FBE0F9082
:103320001F9018952FB7F8946091F7037091F803E8
:103330008091F9039091FA032FBF08953FB7F89455
:103340008091FB039091FC03A091FD03B091FE03DB
:1033500026B5A89B05C02F3F19F00196A11DB11DF0
:103360003FBFBA2FA92F982F8827820F911DA11D2B
:10337000B11DBC01CD0142E0660F771F881F991F68
:103380004A95D1F708958F929F92AF92BF92CF92B4
:10339000DF92EF92FF926B017C010E949E194B011C
:1033A0005C01C114D104E104F10401F10E942D1B60
:1033B0000E949E19DC01CB0188199909AA09BB0951
:1033C000883E9340A105B10560F321E0C21AD108FF
:1033D000E108F10888EE880E83E0981EA11CB11C5C
:1033E000C114D104E104F10419F7DBCFFF90EF9091
:1033F000DF90CF90BF90AF909F908F90089578947A
:1034000084B5826084BD84B5816084BD85B58260E9
:1034100085BD85B5816085BDEEE6F0E08081816087
:103420008083E1E8F0E01082808182608083808187
:1034300081608083E0E8F0E0808181608083E1EB5F
:10344000F0E0808184608083E0EBF0E08081816047
:103450008083EAE7F0E080818460808380818260FD
:1034600080838081816080838081806880831092E6
:10347000C10008951F93CF93DF93182FEB0161E0F4
:103480000E94C21A209711F460E004C0CF3FD1051A
:1034900039F461E0812FDF91CF911F910C94FE1AD6
:1034A000E12FF0E0ED5DFD4FE491E330F9F048F4F9
:1034B000E130B9F0E230A1F584B5806284BDC8BDC9
:1034C00034C0E730E9F0E83019F1E43049F5809193
:1034D0008000806280938000D0938B00C0938A002C
:1034E00024C084B5806884BDC7BD1FC080918000A2
:1034F000806880938000D0938900C093880015C0B5
:103500008091B00080688093B000C093B3000DC07C
:103510008091B00080628093B000C093B40005C079
:10352000C038D1050CF0B5CFAFCFDF91CF911F914F
:103530000895833081F028F4813099F08230A1F031
:1035400008958730A9F08830B9F08430D1F48091A3
:1035500080008F7D03C0809180008F7780938000F2
:10356000089584B58F7702C084B58F7D84BD08959A
:103570008091B0008F7703C08091B0008F7D8093E1
:10358000B0000895CF93DF9390E0FC01E95CFD4F1C
:103590002491FC01E55BFD4F8491882361F190E06B
:1035A000880F991FFC01ED58FD4FC591D491FC0186
:1035B000E759FD4FA591B491611109C09FB7F894E7
:1035C0008881209582238883EC912E230BC0623062
:1035D00061F49FB7F8948881322F309583238883D4
:1035E000EC912E2B2C939FBF06C08FB7F894E881E7
:1035F0002E2B28838FBFDF91CF9108951F93CF93F8
:10360000DF93282F30E0F901ED5DFD4F8491F90142
:10361000E95CFD4FD491F901E55BFD4FC491CC23EA
:10362000C1F0162F81110E94991AEC2FF0E0EE0FD5
:10363000FF1FE759FD4FA591B4919FB7F894111161
:1036400004C08C91D095D82302C0EC91DE2BDC9382
:103650009FBFDF91CF911F910895089510926C0440
:1036600081E080936A041092690461E082E10E9423
:10367000FE1A61E083E10E94FE1AE9EBF0E080812E
:103680008E7F808380818D7F808388E48093B800E3
:1036900085E48093BC000895413208F043C09091C6
:1036A0006C049111FCCF91E090936C0420936A0418
:1036B0002FEF2093FF0310924404240F2093430420
:1036C00090936B0490916B04880F892B80936B040B
:1036D00080916904813061F41092690480916B04D7
:1036E0008093BB008091BC0083FDF8CF85EC01C0C6
:1036F00085EE8093BC0080916C048130E1F3809171
:103700004404841710F440914404A5E4B4E0962FD7
:10371000FB018E2F891B841718F48D918193F9CFAB
:10372000842F089580E008950F93413208F04AC035
:1037300090916C049111FCCF32E030936C040093B3
:103740006A043FEF3093FF03109244044093430414
:10375000562FA5E4B4E0FB013E2F351B341718F4B7
:1037600031913D93F9CF10926B0430916B04880F27
:10377000832B80936B0480916904813061F41092F3
:10378000690480916B048093BB008091BC0083FD31
:10379000F8CF85EC01C085EE8093BC00222321F098
:1037A00080916C048230D1F38091FF038F3F79F0D8
:1037B0008091FF03803241F08091FF03803331F02C
:1037C00094E005C091E003C092E001C093E0892F2E
:1037D0000F91089540912104262F30E0240F311DD0
:1037E00021323105DCF420916C042430C9F4FC0151
:1037F00080E090E0861758F4309121042191DC019B
:10380000AD5DBB4FA30FB11D2C930196F3CF8091FB
:103810002104680F6093210480E0089581E00895F9
:1038200082E0089585ED8093BC008091BC0084FD0A
:10383000FCCF10926C04089585EC8093BC0010922C
:103840006C0408951F920F920FB60F9211242F93BC
:103850003F934F935F936F937F938F939F93AF9318
:10386000BF93EF93FF938091B900887F803609F46E
:103870009EC078F5883209F45DC090F4803109F477
:1038800056C038F4882309F4F5C0883009F44FC0D5
:10389000F5C0883109F44EC0803209F45FC0EEC033
:1038A000803409F46AC058F4803309F457C088336F
:1038B00009F0E4C08093FF030E941C1CDFC0803528
:1038C00009F44FC0883509F45DC0883409F0D6C0CA
:1038D000D3C0883909F4C4C0A8F4883709F467C094
:1038E00038F4883609F463C0803709F460C0C6C074
:1038F000883809F4B5C0803909F45FC0803809F010
:10390000BDC05BC0803B09F483C038F4803A09F441
:1039100066C0883A09F47CC0B1C0803C09F4A4C0F8
:10392000883C09F4A1C0883B09F487C0A7C08091F6
:103930006B0410C09091440480914304981770F573
:10394000E091440481E08E0F80934404F0E0EB5B4F
:10395000FB4F80818093BB0085EC83C08093FF0385
:103960008BC0E091440481E08E0F809344048091E9
:10397000BB00F0E0EB5BFB4F8083909144048091AF
:1039800043046BC0E091440481E08E0F80934404B3
:103990008091BB00F0E0EB5BFB4F808380916A0479
:1039A00081116AC081E08093690484EA5EC083E08B
:1039B00080936C0410920004CFCF80910004803279
:1039C00008F04EC0E091000481E08E0F8093000467
:1039D0008091BB00F0E0EF5FFB4F8083BDCF0E9482
:1039E0001C1C80910004803230F4E0910004F0E06F
:1039F000EF5FFB4F10826091000470E0E09165047E
:103A0000F091660481E094E009951092000436C0BC
:103A100084E080936C041092220410922104E091BF
:103A20006704F0916804099580912104811105C013
:103A300081E08093210410922304E091220481E02C
:103A40008E0F80932204F0E0ED5DFB4F8081809328
:103A5000BB009091220480912104981708F47CCF38
:103A600085E88093BC000AC085EC8093BC0010926E
:103A70006C0404C01092FF030E94121CFF91EF918E
:103A8000BF91AF919F918F917F916F915F914F9176
:103A90003F912F910F900FBE0F901F9018950E948D
:103AA0006713880B990B089597FB072E16F4009463
:103AB00007D077FD09D00E94901D07FC05D03EF489
:103AC000909581959F4F0895709561957F4F0895CA
:103AD000A1E21A2EAA1BBB1BFD010DC0AA1FBB1F12
:103AE000EE1FFF1FA217B307E407F50720F0A21B84
:103AF000B30BE40BF50B661F771F881F991F1A94F1
:103B000069F760957095809590959B01AC01BD011A
:103B1000CF010895EE0FFF1F0590F491E02D099459
:103B2000AA1BBB1B51E107C0AA1FBB1FA617B707E3
:103B300010F0A61BB70B881F991F5A95A9F78095FF
:103B40009095BC01CD010895EF920F931F93CF93F1
:103B5000DF93E80147FD02C034E001C034E1042EE8
:103B6000000C550B57FF03C0519541955109E32EA9
:103B7000022F242FAE010E944621CE01DF91CF916A
:103B80001F910F91EF9008950F931F93CF93DF93A1
:103B90008230910510F482E090E0E0916F04F091A2
:103BA000700420E030E0A0E0B0E0309719F14081EF
:103BB00051810281138148175907C8F0841795076E
:103BC00069F4109731F012960C93129713961C9388
:103BD00027C000936F041093700422C02115310593
:103BE00019F04217530718F49A01BD01EF01DF01E4
:103BF000F801DBCF21153105F9F0281B390B2430F2
:103C0000310580F48A819B816115710521F0FB01EA
:103C10009383828304C09093700480936F04FE01A9
:103C2000329644C0FE01E20FF31F8193919322501C
:103C30003109398328833AC020916D0430916E0494
:103C4000232B41F4209102013091030130936E0443
:103C500020936D042091000130910101211531055F
:103C600041F42DB73EB74091040150910501241B4A
:103C7000350BE0916D04F0916E04E217F307A0F4A8
:103C80002E1B3F0B2817390778F0AC014E5F5F4FB2
:103C90002417350748F04E0F5F1F50936E04409372
:103CA0006D048193919302C0E0E0F0E0CF01DF91D9
:103CB000CF911F910F910895CF93DF93009709F44F
:103CC00081C0FC01329713821282A0916F04B091DF
:103CD0007004109781F420813181820F931F20910D
:103CE0006D0430916E042817390751F5F0936E0476
:103CF000E0936D0467C0ED0120E030E0CE17DF07F0
:103D000040F44A815B819E0141155105F1F0EA01C1
:103D1000F5CFD383C28340815181840F951FC8178B
:103D2000D90759F488819981840F951F0296918350
:103D300080838A819B81938382832115310529F4B5
:103D4000F0937004E0936F043DC0E901FB83EA83C4
:103D500049915991C40FD51FEC17FD0761F480817B
:103D60009181840F951F0296E9019983888382814E
:103D700093819B838A83E0E0F0E012968D919C9181
:103D80001397009719F0FD01DC01F7CF8D919C91FD
:103D900011979D012E5F3F4F820F931F20916D045D
:103DA00030916E042817390769F4309729F410927E
:103DB000700410926F0402C013821282B0936E04DA
:103DC000A0936D04DF91CF910895FB01DC01059074
:103DD0000D920020E1F70895FB01DC0102C0019083
:103DE0000D9241505040D8F70895DC0101C06D9309
:103DF00041505040E0F70895BB274A3031F49923F1
:103E000022F4BDE2909581959F4F0C942A1FBB2709
:103E1000FA01A62F6217710581059105330B30FB5E
:103E200066F0AA27660F771F881F991FAA1FA2177F
:103E300010F0A21B63953850A9F7A05DAA3308F0D3
:103E4000A95DA19336F7B111B1931082CA010C9408
:103E50008E23BB27FB015527AA27880F991FAA1F6E
:103E6000A41710F0A41B83955051B9F7A05DAA3395
:103E700008F0A95DA193009779F7B111B193119260
:103E8000CB010C948E23AEE0B0E0E9E4FFE10C94AA
:103E900046240D891E8986E08C831A8309838FEF5F
:103EA0009FE79E838D83AE01475E5F4F6F89788D5C
:103EB000CE0101960E94651FEF81F885E00FF11F8A
:103EC00010822E96E4E00C946224ABE0B0E0EBE6C6
:103ED000FFE10C9438246C017B018A01FC011782FC
:103EE0001682838181FFCCC1CE0101963C01F6018F
:103EF0009381F70193FD859193FF81917F01882341
:103F000009F4BAC1853239F493FD859193FF81910B
:103F10007F01853229F4B60190E00E949E23E7CF0D
:103F2000912C212C312CFFE1F315D8F08B3279F054
:103F300038F4803279F08332A1F4232D20611DC042
:103F40008D3261F0803369F4232D216016C0832DFA
:103F50008260382EE32DE4603E2E2AC0F32DF860F7
:103F60001DC037FC2DC020ED280F2A3040F08E32C6
:103F7000B9F436FC81C1232D2064322E19C036FEDF
:103F800006C08AE0989E200D1124922E11C0EAE00E
:103F90002E9E200D1124222EF32DF0623F2E08C0FC
:103FA0008C3621F4832D8068382E02C0883641F487
:103FB000F70193FD859193FF81917F018111B3CF2B
:103FC000982F9F7D9554933028F40C5F1F4F9FE3EB
:103FD00099830DC0833631F0833771F0833509F052
:103FE00059C021C0F801808189830E5F1F4F88244A
:103FF0008394912C530113C02801F2E04F0E511C01
:10400000F801A080B18036FE03C0692D70E002C0C7
:104010006FEF7FEFC5010E9483234C018201F32DD6
:10402000FF773F2E16C0280122E0420E511CF801F6
:10403000A080B18036FE03C0692D70E002C06FEF32
:104040007FEFC5010E9478234C01F32DF0683F2ECD
:10405000820133FC1BC0822D90E088169906B0F4D3
:10406000B60180E290E00E949E232A94F4CFF501ED
:1040700037FC859137FE81915F01B60190E00E9487
:104080009E2321102A9421E0821A91088114910420
:1040900071F7E8C0843611F0893641F5F80137FE32
:1040A00007C060817181828193810C5F1F4F08C0BE
:1040B00060817181072E000C880B990B0E5F1F4FDA
:1040C000F32DFF763F2E97FF09C090958095709550
:1040D00061957F4F8F4F9F4FF0683F2E2AE030E071
:1040E000A3010E94DA23882E861845C0853731F453
:1040F000232D2F7EB22E2AE030E025C0932D997F0C
:10410000B92E8F36C1F018F4883579F0B5C08037F4
:1041100019F0883721F0B0C0E92FE061BE2EB4FE5F
:104120000DC0FB2DF460BF2E09C034FE0AC0292F3C
:104130002660B22E06C028E030E005C020E130E065
:1041400002C020E132E0F801B7FE07C06081718152
:10415000828193810C5F1F4F06C06081718180E076
:1041600090E00E5F1F4FA3010E94DA23882E86186D
:10417000FB2DFF773F2E36FE0DC0232D2E7FA22E66
:10418000891458F434FE0BC032FC09C0832D8E7E96
:10419000A82E05C0B82CA32C03C0B82C01C0B92C84
:1041A000A4FE0FC0FE01E80DF11D8081803321F4D3
:1041B0009A2D997EA92E09C0A2FE06C0B394B3948D
:1041C00004C08A2D867809F0B394A3FC11C0A0FE28
:1041D00006C0B21488F4280C922C9B180EC0B2149E
:1041E00060F4B60180E290E00E949E23B394F7CF82
:1041F000B21418F42B1802C0982C212CA4FE10C065
:10420000B60180E390E00E949E23A2FE17C0A1FCAD
:1042100003C088E790E002C088E590E0B6010CC0DA
:104220008A2D867859F0A1FE02C08BE201C080E29F
:10423000A7FC8DE2B60190E00E949E23891438F419
:10424000B60180E390E00E949E239A94F7CF8A946F
:10425000F301E80DF11D8081B60190E00E949E23DC
:104260008110F5CF222009F442CEB60180E290E021
:104270000E949E232A94F6CFF6018681978102C080
:104280008FEF9FEF2B96E2E10C945424A9E0B0E06D
:10429000ECE4F1E20C943E246A01122FB02E2BE3E1
:1042A000201720F0FF24F394F00E02C02CE3F22E2E
:1042B0000F2D27E0AE014F5F5F4F0E94A022BC018F
:1042C0004981842F8970813031F0E1FC06C0E0FE25
:1042D00006C090E205C09DE203C09BE201C090E0F1
:1042E0005E2D507143FF3CC0911102C083E001C0BC
:1042F00084E0811718F4212F281B01C020E0511100
:104300000BC0F601822F30E2882319F031938150DF
:10431000FBCFC20ED11C20E0992329F0D6019C933B
:10432000F60131966F01C6010396E2FE0AC03EE433
:10433000D6013C9341E411964C93119712963C930D
:1043400006C03EE6F601308341E641833283FC013C
:10435000322F40E2332309F442C041933150FACF67
:1043600042FF44C0911102C083E001C084E0811784
:1043700018F4212F281B01C020E051110BC0F601B9
:10438000822F30E2882319F031938150FBCFC20E87
:10439000D11C20E0992329F0D6019C93F601319697
:1043A0006F01C6010396E2FE0BC039E4D6013C93CF
:1043B0003EE411963C93119736E412963C9307C065
:1043C00039E6F60130833EE6318336E63283FC017E
:1043D000322F40E2332319F041933150FBCFFC01DF
:1043E000E20FF11D10828EEF9FEFA6C021E030E0BA
:1043F000911102C020E030E0161617061CF4FB01F4
:10440000319602C0E1E0F0E02E0F3F1FBB2021F00B
:10441000EB2DF0E0319602C0E0E0F0E02E0F3F1F00
:10442000E12FF0E02E173F071CF4121B212F01C0D3
:1044300020E08E2D887159F4F601822F30E2882316
:1044400019F031938150FBCFC20ED11C20E099238B
:1044500029F0D6019C93F60131966F0151110BC0E2
:10446000F601822F90E3882319F091938150FBCFBE
:10447000C20ED11C20E00F2D060F9A81342F30710F
:1044800044FF03C0913309F40150101624F409309D
:1044900018F008E001C001E0AB0177FF02C040E086
:1044A00050E0FB01E41BF50BA1E0B0E0AC0FBD1F39
:1044B000EA0FFB1F8EE2A82E4B01801A91080B2DEC
:1044C00010E01195019511094F3FBFEF5B0721F4F3
:1044D000D601AC9211966D01641775072CF0841605
:1044E000950614F4818101C080E341505109319651
:1044F000D60111967D014017510724F0D6018C9307
:104500006701E2CF6417750739F4963320F49533C9
:1045100019F4311101C081E3F6018083F701822F84
:1045200090E2882319F091938150FBCFF701E20FBD
:10453000F11D108280E090E02996ECE00C945A2462
:10454000283008F027E03327DA01990F311D87FD65
:10455000916000966105710539F432602E5F3D93DC
:1045600030E32A95E1F708959F3F30F080387105D8
:10457000610509F03C5F3C5F3D93913008F0806835
:10458000911DDF93CF931F930F93FF92EF92192FFB
:10459000987F9695E92F96959695E90FFF27E25E0D
:1045A000FE4F99273327EE24FF24A701E70105904A
:1045B0000894079428F4360FE71EF81E491F511D72
:1045C000660F771F881F991F0694A1F7059007941F
:1045D00028F4E70EF81E491F561FC11D770F881FCC
:1045E000991F661F0694A1F70590079428F4F80E0A
:1045F000491F561FC71FD11D880F991F661F771FA0
:104600000694A1F70590079420F4490F561FC71F81
:10461000D81F990F661F771F881F0694A9F78491EA
:104620001095177041F0D695C79557954795F79413
:10463000E7941A95C1F7E4ECF0E0689415901591B1
:1046400035916591959105907FE27395E118F10A96
:10465000430B560BC90BD009C0F7E10CF11E431FE9
:10466000561FC91FD01D7EF4703311F48A95E6CF12
:10467000E894015030F0080F0AF40027021708F4FC
:10468000202F2395022F7A3328F079E37D932A9502
:10469000E9F710C07D932A9589F60694979567955A
:1046A000379517951794E118F10A430B560BC90B70
:1046B000D00998F023957E9173957A3308F070E3D2
:1046C0007C932013B8F77E9170617D9330F08395D1
:1046D00071E37D9370E32A95E1F71124EF90FF9049
:1046E0000F911F91CF91DF91992787FD90950895A4
:1046F000FC010590615070400110D8F780959095AD
:104700008E0F9F1F0895FC016150704001900110B1
:10471000D8F7809590958E0F9F1F0895DC01FC01BE
:10472000672F71917723E1F7329704C07C916D93E5
:1047300070836291AE17BF07C8F308950F931F935C
:10474000CF93DF93FB01238121FD03C08FEF9FEF08
:104750002CC022FF16C04681578124813581421723
:10476000530744F4A081B1819D012F5F3F4F3183F6
:1047700020838C93268137812F5F3F4F3783268399
:1047800014C08B01EC01FB010084F185E02D09953B
:10479000892BE1F6D80116968D919C911797019679
:1047A00017969C938E931697CE01DF91CF911F9110
:1047B0000F910895FA01AA27283051F1203181F193
:1047C000E8946F936E7F6E5F7F4F8F4F9F4FAF4F19
:1047D000B1E03ED0B4E03CD0670F781F891F9A1F2C
:1047E000A11D680F791F8A1F911DA11D6A0F711DE0
:1047F000811D911DA11D20D009F468943F912AE0EC
:10480000269F11243019305D3193DEF6CF010895D3
:10481000462F4770405D4193B3E00FD0C9F7F6CF04
:10482000462F4F70405D4A3318F0495D31FD4052CC
:10483000419302D0A9F7EACFB4E0A6959795879562
:1048400077956795BA95C9F7009761057105089541
:104850009B01AC010A2E06945795479537952795ED
:10486000BA95C9F7620F731F841F951FA01D089585
:104870002F923F924F925F926F927F928F929F9270
:10488000AF92BF92CF92DF92EF92FF920F931F935E
:10489000CF93DF93CDB7DEB7CA1BDB0B0FB6F8940F
:1048A000DEBF0FBECDBF09942A88398848885F844F
:1048B0006E847D848C849B84AA84B984C884DF80C0
:1048C000EE80FD800C811B81AA81B981CE0FD11DA4
:1048D0000FB6F894DEBF0FBECDBFED01089511E015
:1048E000C3E4D1E004C0FE010E948A1D2196C534B4
:0848F000D107C9F7F894FFCFCE
:1048F80000007104200000010000C8425A0059005D
:104908005800426C756500477265656E00526564B3
:104918000048656164696E67005069746368005295
:104928006F6C6C006D2F735E32007261642F7300C0
:1049380075540043006D2F73006C7578006D572F08
:10494800636D5E3200646567006850610034013A47
:10495800014001430112024501490112024D01556E
:10496800015901000000006F0173015603EA0400B9
:104978000000005E0A84162E0A1C0A0A0A400A0071
:10498800000000700B8416C90A900AB10AE10A4FA8
:104998006F6F70732C206E6F204C534D3330332063
:1049A8006465746563746564202E2E2E20436865E3
:1049B800636B20796F757220776972696E67210061
:1049C8004D61672064617461002C007C004D616753
:1049D80020617667004809092569090953090925ED
:1049E800690909440909256909095409092569005A
:1049F8000000000011158416B414CE14C014581504
:104A08000D0A006E616E00696E66006F76660000C2
:104A1800000000741847181B182318371846180088
:00000001FF
