S00C00006D61696E2E7372656373
S11300000C945C000C9479000C9479000C947900A5
S11300100C9479000C9479000C9479000C94790078
S11300200C9479000C9479000C9479000C94790068
S11300300C9479000C9479000C9479000C94790058
S11300400C9417010C9479000C9479000C947900A9
S11300500C9479000C9479000C9479000C94790038
S11300600C9479000C94790000000008000201004F
S1130070000304070000000000000000010204085F
S113008010204080010204081020010204081020FE
S1130090040404040404040402020202020203032A
S11300A00303030300000000250028002B000000C8
S11300B00000240027002A0011241FBECFEFD8E03F
S11300C0DEBFCDBF11E0A0E0B1E0E6EEF5E002C096
S11300D005900D92A030B107D9F721E0A0E0B1E07E
S11300E001C01D92A930B207E1F70E9408010C94E7
S11300F0F1020C94000061E08BE00E94850261E053
S11301008AE00E94850260E08BE00E94C10260E008
S11301108AE00C94C1020F931F93CF938B0141305B
S1130120510511F4019704C04F3F2FEF520711F00E
S1130130CAE001C0CBE0BA01680F791F8C2F0E947E
S1130140FD01B801110F880B990B0E94860160E034
S113015070E08C2F0E94FD0160E08C2FCF911F91E5
S11301600F910C94C10241E050E066E970E08AEE20
S113017090E00E948B0064E670E080E090E00E94D2
S1130180860141E050E066E970E08AEE90E00E946A
S11301908B0064E670E080E090E00E94860141E01C
S11301A050E066E970E08AEE90E00E948B0064E61D
S11301B070E080E090E00E9486014FEF5FEF66E917
S11301C070E08AEE90E00E948B0064E670E080E0CC
S11301D090E00E9486014FEF5FEF66E970E08AEEDF
S11301E090E00E948B0064E670E080E090E00E9462
S11301F086014FEF5FEF66E970E08AEE90E00E94BF
S11302008B0064E670E080E090E00C948601089531
S11302100E94C2010E9407010E947B00C0E0D0E05E
S11302200E94B3002097E1F30E940000F9CF1F92CF
S11302300F920FB60F9211242F933F938F939F9396
S1130240AF93BF938091010190910201A0910301AA
S1130250B09104013091000123E0230F2D3720F4E5
S11302600196A11DB11D05C026E8230F0296A11D0C
S1130270B11D209300018093010190930201A0938A
S11302800301B09304018091050190910601A091AE
S11302900701B09108010196A11DB11D80930501CC
S11302A090930601A0930701B0930801BF91AF9109
S11302B09F918F913F912F910F900FBE0F901F90A0
S11302C018953FB7F8948091050190910601A0918B
S11302D00701B091080126B5A89B05C02F3F19F06E
S11302E00196A11DB11D3FBFBA2FA92F982F8827B2
S11302F0820F911DA11DB11DBC01CD0142E0660F0D
S1130300771F881F991F4A95D1F708958F929F925E
S1130310AF92BF92CF92DF92EF92FF926B017C017A
S11303200E9461014B015C01C114D104E104F10498
S113033001F10E94F0020E946101DC01CB018819E5
S11303409909AA09BB09883E9340A105B10560F348
S113035021E0C21AD108E108F10888EE880E83E092
S1130360981EA11CB11CC114D104E104F10419F7B5
S1130370DBCFFF90EF90DF90CF90BF90AF909F9036
S11303808F900895789484B5826084BD84B581602B
S113039084BD85B5826085BD85B5816085BDEEE689
S11303A0F0E0808181608083E1E8F0E01082808168
S11303B082608083808181608083E0E8F0E08081D6
S11303C081608083E1EBF0E0808184608083E0EBF6
S11303D0F0E0808181608083EAE7F0E080818460DE
S11303E0808380818260808380818160808380813A
S11303F0806880831092C10008951F93CF93DF9388
S1130400182FEB0161E00E948502209711F460E04F
S113041004C0CF3FD10539F461E0812FDF91CF9142
S11304201F910C94C102E12FF0E0E859FF4FE491D1
S1130430E330F9F048F4E130B9F0E230A1F584B5E5
S1130440806284BDC8BD34C0E730E9F0E83019F1FA
S1130450E43049F580918000806280938000D093DD
S11304608B00C0938A0024C084B5806884BDC7BD56
S11304701FC080918000806880938000D0938900A1
S1130480C093880015C08091B00080688093B0004C
S1130490C093B3000DC08091B00080628093B0001F
S11304A0C093B40005C0C038D1050CF0B5CFAFCFB0
S11304B0DF91CF911F910895833081F028F481302A
S11304C099F08230A1F008958730A9F08830B9F00E
S11304D08430D1F4809180008F7D03C080918000AE
S11304E08F7780938000089584B58F7702C084B598
S11304F08F7D84BD08958091B0008F7703C0809173
S1130500B0008F7D8093B0000895CF93DF9390E087
S1130510FC01E458FF4F2491FC01E057FF4F849104
S1130520882361F190E0880F991FFC01E255FF4F89
S1130530C591D491FC01EC55FF4FA591B491611183
S113054009C09FB7F8948881209582238883EC9111
S11305502E230BC0623061F49FB7F8948881322F48
S1130560309583238883EC912E2B2C939FBF06C058
S11305708FB7F894E8812E2B28838FBFDF91CF911A
S113058008951F93CF93DF93282F30E0F901E859A2
S1130590FF4F8491F901E458FF4FD491F901E057DA
S11305A0FF4FC491CC23C1F0162F81110E945C022D
S11305B0EC2FF0E0EE0FFF1FEC55FF4FA591B49127
S11305C09FB7F894111104C08C91D095D82302C020
S11305D0EC91DE2BDC939FBFDF91CF911F910895A7
S10905E00895F894FFCF1A
S9030000FC
