:100000000C9462000C948A000C948A000C948A0070
:100010000C948A000C948A000C948A000C948A0038
:100020000C948A000C948A000C948A000C948A0028
:100030000C948A000C948A000C948A000C948A0018
:100040000C94E0030C948A000C94AE030C94880387
:100050000C948A000C948A000C948A000C948A00F8
:100060000C948A000C948A000000000024002700F1
:100070002A000000000023002600290000000000E4
:10008000250028002B0004040404040404040202D4
:100090000202020203030303030301020408102007
:1000A0004080010204081020010204081020000012
:1000B0000008000201000003040700000000000027
:1000C00000002A0411241FBECFEFD8E0DEBFCDBF51
:1000D00011E0A0E0B1E0E6E2F1E102C005900D928E
:1000E000AC35B107D9F722E0ACE5B1E001C01D9213
:1000F000AA35B207E1F710E0C2E6D0E004C02197CC
:10010000FE010E946408C136D107C9F70E94690444
:100110000C9491080C940000CF92DF92EF92FF9222
:100120000F931F93CF93DF936C017A018B01C0E093
:10013000D0E0CE15DF0589F0D8016D918D01D60193
:10014000ED91FC910190F081E02DC6010995892B7C
:1001500011F47E0102C02196ECCFC701DF91CF914F
:100160001F910F91FF90EF90DF90CF900895FC01C9
:10017000918D828D981761F0828DDF01A80FB11DDE
:100180005D968C91928D9F5F9F73928F90E0089502
:100190008FEF9FEF0895FC01918D828D981731F0BC
:1001A000828DE80FF11D858D90E008958FEF9FEF10
:1001B0000895FC01918D228D892F90E0805C9F4FE6
:1001C000821B91098F739927089581E791E00E941E
:1001D000D90021E0892B09F420E0822F0895FC0149
:1001E000848DDF01A80FB11DA35ABF4F2C91848DC0
:1001F00090E001968F739927848FA689B7892C93F5
:10020000A089B1898C9180648C93938D848D98138F
:1002100006C00288F389E02D80818F7D8083089558
:10022000EF92FF920F931F93CF93DF93EC0181E046
:10023000888F9B8D8C8D981305C0E889F989808102
:1002400085FD24C0F62E0B8D10E00F5F1F4F0F733E
:100250001127E02E8C8DE8120CC00FB607FCFACFE8
:10026000E889F989808185FFF5CFCE010E94EF00F2
:10027000F1CF8B8DFE01E80FF11DE35AFF4FF082A5
:100280000B8FEA89FB898081806207C0EE89FF8934
:100290006083E889F98980818064808381E090E0CF
:1002A000DF91CF911F910F91FF90EF900895CF9321
:1002B000DF93EC01888D8823C9F0EA89FB8980816E
:1002C00085FD05C0A889B9898C9186FD0FC00FB640
:1002D00007FCF5CF808185FFF2CFA889B9898C9181
:1002E00085FFEDCFCE010E94EF00E7CFDF91CF91E8
:1002F000089580E090E0892B29F00E94E5008111AB
:100300000C9400000895833081F028F4813099F036
:100310008230A1F008958730A9F08830B9F0843098
:10032000D1F4809180008F7D03C0809180008F7711
:1003300080938000089584B58F7702C084B58F7D47
:1003400084BD08958091B0008F7703C08091B00084
:100350008F7D8093B00008951F93CF93DF93E6EBDA
:10036000F0E09491E2EAF0E0D491EEE8F0E0C4919C
:10037000CC23D9F0182F992319F0892F0E948301DB
:10038000EC2FF0E0EE0FFF1FE458FF4FA591B49162
:100390008FB7F894111105C09C91ED2FE095E923DA
:1003A00002C0EC91ED2BEC938FBFDF91CF911F91A9
:1003B00008953FB7F8948091610190916201A091F6
:1003C0006301B091640126B5A89B05C02F3F19F0C9
:1003D0000196A11DB11D3FBFBA2FA92F982F8827C5
:1003E000820F911DA11DB11DBC01CD0142E0660F20
:1003F000771F881F991F4A95D1F708958F929F9272
:10040000AF92BF92CF92DF92EF92FF926B017C018D
:100410000E94D9014B015C01C114D104E104F10433
:10042000F1F00E94D901DC01CB0188199909AA09D0
:10043000BB09883E9340A105B10570F321E0C21AC3
:10044000D108E108F10888EE880E83E0981EA11C0F
:10045000B11CC114D104E104F10419F7DDCFFF9000
:10046000EF90DF90CF90BF90AF909F908F900895C6
:100470002FB7F89460915D0170915E0180915F01EA
:10048000909160012FBF08950E946A08611571055F
:1004900079F0FB0101900020E9F73197AF01461B8D
:1004A000570BDC01ED91FC910280F381E02D099462
:1004B00080E090E00895CF93DF93C0915002D091F7
:1004C000510266E171E0CE010E94460269E571E0E9
:1004D000CE01DF91CF910C9446024F925F926F92C2
:1004E0007F92EF92FF920F931F93CF93DF93CDB73D
:1004F000DEB7A1970FB6F894DEBF0FBECDBF7C016B
:10050000FA01CB0119A2223008F42AE08E010F5D16
:100510001F4F422E512C612C712CBF01A30192015F
:100520000E946F08F901CA01015011096A3014F4E0
:10053000605D01C0695CD8016C93232B242B252BB3
:1005400061F7B801C7010E944602A1960FB6F89460
:10055000DEBF0FBECDBFDF91CF911F910F91FF90F6
:10056000EF907F906F905F904F900895CF92DF92C1
:10057000EF92FF920F931F93CF93DF93EC016A01E9
:100580007B01E881F9810190F081E02D6DE2099510
:100590008C0144275527BA014C195D096E097F0962
:1005A0002AE0CE010E946D02800F911FDF91CF9152
:1005B0001F910F91FF90EF90DF90CF900895CF9310
:1005C000DF9300D0CDB7DEB72091560230915702AD
:1005D000CE0101962115310519F48A55924018C0B3
:1005E000AC01421B530BE0915802F091590280E09C
:1005F00090E0309759F09C012E5F3F4F80819181B0
:10060000820F931F0280F381E02DF3CF840F951F9B
:100610009A83898349815A81809150029091510235
:10062000052E000C660B770B77FF03C00E94B60205
:1006300003C02AE00E946D020F900F90DF91CF91CE
:1006400008950C944602BF92CF92DF92EF92FF92F0
:100650000F931F93CF93DF93B82E0E9438026B0144
:100660007C010EE012E0C0E5D2E06DE171E088812E
:1006700099810E9421034B2D50E060E070E02AE058
:10068000888199810E946D0264E271E0888199817C
:100690000E9421032AE0B701A601888199810E9466
:1006A0006D0266E271E0888199810E942103F80160
:1006B00086819781A085B185B701A601481B590B9A
:1006C0006A0B7B0B2AE0888199810E946D0266E2A9
:1006D00071E0888199810E942103F8014681578148
:1006E0006085718582859385A485B585481B590BE6
:1006F0006A0B7B0B2AE088819981DF91CF911F9152
:100700000F91FF90EF90DF90CF90BF900C946D020F
:100710001F920F920FB60F9211242F933F934F9376
:100720005F936F937F938F939F93AF93BF93EF9359
:10073000FF9381E791E00E94EF00FF91EF91BF915D
:10074000AF919F918F917F916F915F914F913F9169
:100750002F910F900FBE0F901F9018951F920F9220
:100760000FB60F9211242F938F939F93EF93FF93C4
:10077000E0918101F09182018081E0918701F09107
:10078000880182FD12C0908180918A018F5F8F73F2
:1007900020918B01821751F0E0918A01F0E0EF582F
:1007A000FE4F958F80938A0101C08081FF91EF9168
:1007B0009F918F912F910F900FBE0F901F901895C2
:1007C0001F920F920FB60F9211242F933F938F9386
:1007D0009F93AF93BF9380915D0190915E01A09133
:1007E0005F01B091600130915C0123E0230F2D3750
:1007F00020F40196A11DB11D05C026E8230F029625
:10080000A11DB11D20935C0180935D0190935E0159
:10081000A0935F01B09360018091610190916201AA
:10082000A0916301B09164010196A11DB11D809357
:10083000610190936201A0936301B0936401BF9141
:10084000AF919F918F913F912F910F900FBE0F907D
:100850001F901895E1E7F1E01382128288EE93E091
:10086000A0E0B0E084839583A683B7838AE091E01B
:100870009183808385EC90E09587848784EC90E079
:100880009787868780EC90E0918B808B81EC90E05D
:10089000938B828B82EC90E0958B848B86EC90E03E
:1008A000978B868B118E128E138E148EEEE0F2E0F3
:1008B0001682178210861186128613861486158674
:1008C00016861786108A118A128A138A148A158A44
:1008D0000895789484B5826084BD84B5816084BDB8
:1008E00085B5826085BD85B5816085BD80916E00CE
:1008F000816080936E0010928100809181008260FF
:10090000809381008091810081608093810080913B
:1009100080008160809380008091B100846080932A
:10092000B1008091B00081608093B00080917A0026
:10093000846080937A0080917A00826080937A004C
:1009400080917A00816080937A0080917A0080683B
:1009500080937A001092C1001092520210925302BA
:10096000109254021092550210921002109211022D
:10097000109212021092130260ED77E080E090E096
:100980000E94FE0181E791E0909351028093500212
:10099000E0918101F091820182E08083E0917D010C
:1009A000F0917E011082E0917F01F091800180E161
:1009B000808310928901E0918501F091860186E0A3
:1009C0008083E0918301F091840180818061808344
:1009D000E0918301F0918401808188608083E091BF
:1009E0008301F0918401808180688083E09183019C
:1009F000F091840180818F7D80830E943802609312
:100A0000100270931102809312029093130268E215
:100A100071E080915002909151020E9421036AE09E
:100A200070E080E090E00E94FE0181E0809324026B
:100A30000E943802009110021091110220911202BE
:100A400030911302DC01CB01801B910BA20BB30B85
:100A500084369105A105B10538F463E070E080E0CB
:100A600090E00E94FE01E4CF0E94380260931002E1
:100A70007093110280931202909313026AE371E063
:100A800080915002909151020E94210361E471E033
:100A900080915002909151020E94210361E471E023
:100AA00080915002909151020E94210361E471E013
:100AB00080915002909151020E9421030E94DF0216
:100AC00061E471E080915002909151020E942103F3
:100AD00063E471E080915002909151020E942103E1
:100AE0006AE070E080E090E00E94FE01E2EAF0E05F
:100AF0002491EEE8F0E08491882399F090E0880F4B
:100B0000991FFC01E859FF4FA591B491FC01E458ED
:100B1000FF4F859194918FB7F894EC91E22BEC9371
:100B20008FBF94EF892E99249394A12CB12CC5E604
:100B30000E94380200916D0110916E0120916F01A9
:100B400030917001DC01CB01801B910BA20BB30B28
:100B500086399105A105B10508F4E9C00E94380263
:100B600060936D0170936E0180936F01909370019B
:100B700061E070E080E090E00E94FE010E94380297
:100B800060931002709311028093120290931302EB
:100B90006AE371E080915002909151020E9421031A
:100BA00061E471E080915002909151020E94210312
:100BB00010E000E0C12CD12C760180E0002E01C0B5
:100BC000880F0A94EAF7182B0F5F083031F0ADE078
:100BD000CA16D104E104F104A9F4412F50E060E009
:100BE00070E02AE080915002909151020E946D02C3
:100BF00066E271E080915002909151020E942103BF
:100C000000E010E061E070E080E090E00E94FE0112
:100C1000BFEFCB1ADB0AEB0AFB0A8EE0C816D10441
:100C2000E104F10431F181E0C816D104E104F104DA
:100C300021F2F601E255FF4F8491F601E656FF4F8F
:100C40007490F601EA57FF4FD491DD2309F4B5CF34
:100C500081110E948301ED2FF0E0EE0FFF1FEE588F
:100C6000FF4FA591B491EC917E2209F4A6CF81E0CB
:100C7000A5CF61E070E080E090E00E94FE0161E4B9
:100C800071E080915002909151020E942103D0E0C6
:100C90008D2F806480937C0080917A0080648093A3
:100CA0007A0080917A0086FDFCCF209178008091B7
:100CB000790030E0382B8091500290915102A901C7
:100CC000032E000C660B770B37FF03C00E94B602A1
:100CD00003C02AE00E946D0266E271E0809150023A
:100CE000909151020E942103DF5FD63089F661E4C2
:100CF00071E080915002909151020E9421030E9464
:100D0000DF0261E471E080915002909151020E94F3
:100D1000210363E471E080915002909151020E949E
:100D2000210361E070E080E090E00E94FE010E94FB
:100D30003802672B682B692B41F40E94380262301D
:100D400071058105910508F499C00E9438026093ED
:100D5000690170936A0180936B0190936C0100911B
:100D6000650110916601209167013091680160175B
:100D700071078207930740F46093650170936601E1
:100D8000809367019093680100916501109166015D
:100D900020916701309168016B017C01C01AD10A72
:100DA000E20AF30A970186010A3F11052105310580
:100DB00008F464C0609365017093660180936701D5
:100DC0009093680180921C0290921D02A0921E02D4
:100DD000B0921F0210922002109221021092220261
:100DE000109223028091140290911502A091160294
:100DF000B09117028093180290931902A0931A02DF
:100E0000B0931B020E943802609314027093150283
:100E100080931602909317020E943802609310028A
:100E200070931102809312029093130281E00E944A
:100E3000230361E471E080915002909151020E947D
:100E400021030E943802AB01BC012AE080915002CC
:100E5000909151020E946D020E945B0265E070E079
:100E600080E090E00E94FE010E943802609314022C
:100E700070931502809316029093170281E00E94EE
:100E8000AC0180921C0290921D02A0921E02B092B0
:100E90001F02109220021092210210922202109240
:100EA00023028091140290911502A0911602B09134
:100EB00017028093180290931902A0931A02B0931C
:100EC0001B020E94380260931402709315028093F3
:100ED00016029093170265E070E080E090E00E94B7
:100EE000FE016AE070E080E090E00E94FE01C093A5
:100EF000250280912502833609F4CAC0853609F09F
:100F000054C08091200290912102A0912202B091C0
:100F100023020196A11DB11D80932002909321020E
:100F2000A0932202B093230240911C0250911D0213
:100F300060911E0270911F02452B462B472B21F416
:100F4000892B8A2B8B2B89F50E9438020091100285
:100F5000109111022091120230911302DC01CB0199
:100F6000801B910BA20BB30B84369105A105B10533
:100F700038F463E070E080E090E00E94FE01E4CF8E
:100F80000E94380260931002709311028093120243
:100F90009093130282E00E9423030E945B0264EF9D
:100FA00071E080E090E00E94FE016AE070E080E085
:100FB00090E00E94FE0180912402882309F464C01D
:100FC0008091500290915102DC01ED91FC910480DE
:100FD000F581E02D0995811117C085E656C08091F5
:100FE000500290915102DC01ED91FC910680F78155
:100FF000E02D0995883609F447C0A0F0813709F43F
:1010000043C0863709F441C080915002909151024B
:10101000DC01ED91FC910480F581E02D09958111B1
:10102000DECFDBCF883571F1833671F70E9438024D
:101030006093100270931102809312029093130236
:101040006CE471E080915002909151020E94210362
:101050002AE042E050E060E070E080915002909120
:1010600051020E946D0263E571E0809150029091FF
:1010700051020E94210362E370E080E090E00E9450
:10108000FE0102C01092240283E68093250231CF34
:101090000E94380260931402709315028093160226
:1010A0009093170264EF71E080E090E00E94FE01EF
:1010B00080E00E94AC0164EF71E080E090E00E946B
:1010C000FE010E94790134CDEE0FFF1F0590F491CF
:1010D000E02D099481E090E0F8940C949108A1E24D
:1010E0001A2EAA1BBB1BFD010DC0AA1FBB1FEE1FA2
:1010F000FF1FA217B307E407F50720F0A21BB30BED
:10110000E40BF50B661F771F881F991F1A9469F768
:1011100060957095809590959B01AC01BD01CF01C4
:061120000895F894FFCFD2
:1011260000005A0280000000000010018C00D90067
:10113600B700CB0057015F564D44504500564D440D
:1011460050455F003A323A00564D4450565F317C66
:10115600315F564D4450560D0A00564D4450525F6D
:10116600007C005F564D4450520D0A00564D4450C7
:0C117600435F005F564D4450430D0A00DB
:00000001FF
